:020000040800F2
:10000000000003203933000845320008533200084D
:10001000593200085F320008653200080000000015
:100020000000000000000000000000006B3200082B
:10003000793200080000000087320008953200087D
:1000400089330008893300088933000889330008A0
:100050008933000889330008893300088933000890
:100060008933000889330008893300088933000880
:100070008933000889330008893300088933000870
:100080008933000889330008893300088933000860
:100090008933000889330008893300088933000850
:1000A0008933000889330008893300088933000840
:1000B0008933000889330008893300088933000830
:1000C0008933000889330008893300088933000820
:1000D00089330008A53200088933000889330008F5
:1000E0008933000889330008893300088933000800
:1000F00089330008893300088933000889330008F0
:1001000089330008893300088933000889330008DF
:10011000893300088933000889330008B9320008A0
:1001200089330008893300088933000889330008BF
:1001300089330008893300088933000889330008AF
:10014000893300088933000889330008893300089F
:10015000893300088933000889330008893300088F
:10016000893300088933000889330008893300087F
:100170008933000889330008893300080000000033
:10018000893300088933000889330008893300085F
:10019000893300088933000889330008893300084F
:0C01A00089330008893300088933000807
:1001AC0010B5054C237833B9044B13B10448AFF3A5
:1001BC0000800123237010BD780000200000000097
:1001CC00D03A00080C4B43B10C480D4910B5AFF3B5
:1001DC0000800C48036823B910BD0A48036833B982
:1001EC007047094B002BF7D0BDE810401847064B61
:1001FC00002BF5D0184700BF00000000D03A0008D3
:10020C007C000020780000200000000053B94AB99F
:10021C00002908BF00281CBF4FF0FF314FF0FF3002
:10022C0000F07AB9ADF1080C6DE904CE00F006F8D7
:10023C00DDF804E0DDE9022304B070472DE9F04756
:10024C008C460D460446089E002B51D18A42174617
:10025C006DD9B2FA82FEBEF1000F0BD0CEF1200C9C
:10026C0001FA0EF520FA0CFC02FA0EF74CEA050C1A
:10027C0000FA0EF44FEA174A250CBCFBFAF81FFAE9
:10028C0087F90AFB18CC45EA0C4508FB09F3AB428D
:10029C000AD9ED1908F1FF3280F02381AB4240F20C
:1002AC002081A8F102083D44ED1AA4B2B5FBFAF086
:1002BC000AFB105544EA054400FB09F9A14509D98C
:1002CC00E41900F1FF3380F00A81A14540F2078167
:1002DC0002383C44A4EB090440EA08400021002EFB
:1002EC0061D024FA0EF4002334607360BDE8F0870B
:1002FC008B4207D9002E54D0002186E821000846F5
:10030C00BDE8F087B3FA83F1002940F08E80AB4250
:10031C0002D3824200F2FA80841A65EB03050120B5
:10032C00AC46002E3FD086E81010BDE8F08712B91D
:10033C000127B7FBF2F7B7FA87FEBEF1000F34D1F5
:10034C00EB1B3A0C1FFA87FC0121B3FBF2F8250CCE
:10035C0002FB183345EA03450CFB08F3AB4207D903
:10036C00ED1908F1FF3002D2AB4200F2D180804689
:10037C00ED1AA3B2B5FBF2F002FB105543EA0544AB
:10038C000CFB00FCA44507D9E41900F1FF3302D2A1
:10039C00A44500F2B8801846A4EB0C0440EA0840CF
:1003AC009DE731463046BDE8F087CEF1200405FAD2
:1003BC000EF307FA0EF720FA04F83A0C25FA04F4B7
:1003CC0048EA0308B4FBF2F14FEA184502FB11446A
:1003DC001FFA87FC45EA044501FB0CF3AB4200FA1B
:1003EC000EF409D9ED1901F1FF3080F08A80AB428F
:1003FC0040F2878002393D44EB1A1FFA88F5B3FBB3
:10040C00F2F002FB103345EA034500FB0CF3AB4260
:10041C0007D9ED1900F1FF386FD2AB426DD9023814
:10042C003D44EB1A40EA01418FE7C1F1200722FA63
:10043C0007F88B4005FA01F448EA030320FA07FE9B
:10044C004FEA134CFD404EEA040EB5FBFCF94FEAA3
:10045C001E440CFB19551FFA83F844EA054509FBA9
:10046C0008F4AC4202FA01F200FA01FA08D9ED18CC
:10047C0009F1FF3043D2AC4241D9A9F102091D4424
:10048C002D1B1FFA8EFEB5FBFCF00CFB10554EEA33
:10049C00054400FB08F8A04507D9E41800F1FF3526
:1004AC0029D2A04527D902381C4440EA0940A4EBC4
:1004BC000804A0FB02894C45C6464D4615D312D004
:1004CC0056B1BAEB0E0364EB050404FA07F7CB4004
:1004DC001F43CC40376074600021BDE8F08718469C
:1004EC00F8E69046E0E6C245EAD2B8EB020E69EBBC
:1004FC0003050138E4E72846D7E7404691E78146F3
:10050C00BEE7014678E702383C4445E7084608E771
:10051C00A8F102083D442BE7704700BF034613F8CF
:10052C00012B002AFBD1181A0138704780B500AF97
:10053C000E4A0E4B1B6843F4007313600B4A0B4BB3
:10054C001B6843F480631360084A084B1B6843F430
:10055C0080731360032000F0F4F8002002F012FE08
:10056C0002F098FD0023184680BD00BF003C0240FD
:10057C0080B400AF064B1B781A46064B1B6813441D
:10058C00044A136000BFBD465DF8047B704700BF92
:10059C00040000202802002080B400AF034B1B682D
:1005AC001846BD465DF8047B704700BF280200204A
:1005BC0080B584B000AF7860FFF7EEFFB8607B6861
:1005CC00FB60FB68B3F1FF3F05D0094B1B781A4663
:1005DC00FB681344FB6000BFFFF7DEFF0246BB68FD
:1005EC00D21AFB689A42F7D300BF1037BD4680BDC4
:1005FC000400002080B485B000AF78607B6803F005
:10060C000703FB600C4BDB68BB60BA684FF6FF035B
:10061C001340BB60FB681A02BB68134343F0BF6313
:10062C0043F40033BB60044ABB68D36000BF14378B
:10063C00BD465DF8047B704700ED00E080B400AF70
:10064C00044BDB681B0A03F007031846BD465DF834
:10065C00047B704700ED00E080B483B000AF03462C
:10066C00FB71094997F907305B09FA7902F01F020F
:10067C00012000FA02F241F8232000BF0C37BD46DE
:10068C005DF8047B704700BF00E100E080B483B0EC
:10069C0000AF03463960FB7197F90730002B0BDA7A
:1006AC000D49FB7903F00F03043B3A68D2B21201F7
:1006BC00D2B20B441A7609E0084997F907303A6828
:1006CC00D2B21201D2B20B4483F8002300BF0C3714
:1006DC00BD465DF8047B704700ED00E000E100E0F2
:1006EC0080B489B000AFF860B9607A60FB6803F041
:1006FC000703FB61FB69C3F10703042B28BF042329
:10070C00BB61FB690433062B02D9FB69033B00E098
:10071C0000237B610122BB6902FA03F35A1EBB68FA
:10072C001A407B699A4001217B6901FA03F3591E37
:10073C007B680B40134318462437BD465DF8047B99
:10074C00704780B582B000AF78607868FFF752FFD1
:10075C0000BF0837BD4680BD80B586B000AF0346EC
:10076C00B9607A60FB7300237B61FFF767FF7861E8
:10077C007A68B9687869FFF7B3FF024697F90F30CA
:10078C0011461846FFF782FF00BF1837BD4680BDE3
:10079C0080B582B000AF0346FB7197F9073018465D
:1007AC00FFF75AFF00BF0837BD4680BD80B483B049
:1007BC0000AF78607B6893F83530DBB2022B04D045
:1007CC007B6880225A6501230CE07B68052283F844
:1007DC0035207B681B687A681268126822F0010267
:1007EC001A60002318460C37BD465DF8047B704731
:1007FC0080B489B000AF7860396000237B6100233E
:10080C003B610023BB610023FB6177E10122FB69A3
:10081C0002FA03F37B613B681A687B6913403B6106
:10082C003A697B699A4240F066813B685B68022BAF
:10083C0003D03B685B68122B23D1FB69DA087B6819
:10084C00083253F82230BB61FB6903F007039B00AD
:10085C000F2202FA03F3DB43BA691340BB613B6816
:10086C001A69FB6903F007039B0002FA03F3BA69E8
:10087C001343BB61FB69DA087B680832B96943F83A
:10088C0022107B681B68BB61FB695B00032202FAC8
:10089C0003F3DB43BA691340BB613B685B6803F04D
:1008AC000302FB695B0002FA03F3BA691343BB61F1
:1008BC007B68BA691A603B685B68012B0BD03B689C
:1008CC005B68022B07D03B685B68112B03D03B683D
:1008DC005B68122B30D17B689B68BB61FB695B004A
:1008EC00032202FA03F3DB43BA691340BB613B6892
:1008FC00DA68FB695B0002FA03F3BA691343BB6164
:10090C007B68BA699A607B685B68BB610122FB6992
:10091C0002FA03F3DB43BA691340BB613B685B68C3
:10092C001B0903F00102FB6902FA03F3BA691343D2
:10093C00BB617B68BA695A607B68DB68BB61FB6929
:10094C005B00032202FA03F3DB43BA691340BB6179
:10095C003B689A68FB695B0002FA03F3BA691343BC
:10096C00BB617B68BA69DA603B685B6803F08053F3
:10097C00002B00F0C0800023FB60654A644B5B6C6D
:10098C0043F480435364624B5B6C03F48043FB6021
:10099C00FB68604AFB699B08023352F82330BB6149
:1009AC00FB6903F003039B000F2202FA03F3DB4302
:1009BC00BA691340BB617B68574A934237D07B6856
:1009CC00564A934231D07B68554A93422BD07B6870
:1009DC00544A934225D07B68534A93421FD07B687C
:1009EC00524A934219D07B68514A934213D07B6888
:1009FC00504A93420DD07B684F4A934207D07B6894
:100A0C004E4A934201D1092312E00A2310E0082335
:100A1C000EE007230CE006230AE0052308E004237C
:100A2C0006E0032304E0022302E0012300E000239C
:100A3C00FA6902F0030292009340BA691343BB6156
:100A4C003449FB699B080233BA6941F823203C4BBB
:100A5C001B68BB613B69DB43BA691340BB613B68F4
:100A6C005B6803F48033002B03D0BA693B691343F2
:100A7C00BB61334ABB691360314B5B68BB613B693B
:100A8C00DB43BA691340BB613B685B6803F400331A
:100A9C00002B03D0BA693B691343BB61284ABB697D
:100AAC005360274B9B68BB613B69DB43BA691340BE
:100ABC00BB613B685B6803F48013002B03D0BA69FD
:100ACC003B691343BB611E4ABB6993601C4BDB68DB
:100ADC00BB613B69DB43BA691340BB613B685B6834
:100AEC0003F40013002B03D0BA693B691343BB61B9
:100AFC00134ABB69D360FB690133FB61FB690F2BA4
:100B0C007FF684AE00BF2437BD465DF8047B70478A
:100B1C00003802400038014000000240000402404E
:100B2C0000080240000C0240001002400014024079
:100B3C0000180240001C0240002002400024024029
:100B4C00003C014080B483B000AF78600B467B80E2
:100B5C0013467B707B78002B03D07A887B689A6174
:100B6C0003E07B881A047B689A6100BF0C37BD4692
:100B7C005DF8047B7047000080B582B000AF0023A5
:100B8C007B6000233B60204A1F4B1B6C43F080535F
:100B9C0013641D4B1B6C03F080533B603B681B4B79
:100BAC0001221A60FFF7F8FC786009E0FFF7F4FC0B
:100BBC0002467B68D31AB3F57A7F01D903231FE071
:100BCC00134B5B6803F48033B3F5803FEED1114BCC
:100BDC0001221A60FFF7E0FC786009E0FFF7DCFC0B
:100BEC0002467B68D31AB3F57A7F01D9032307E059
:100BFC00074B5B6803F40033B3F5003FEED10023E1
:100C0C0018460837BD4680BD0038024040000E42F1
:100C1C000070004044000E4280B586B000AF786092
:100C2C007B68002B01D101232DE27B681B6803F04C
:100C3C000103002B75D0A34B9B6803F00C03042B12
:100C4C000CD0A04B9B6803F00C03082B12D19D4BCE
:100C5C005B6803F48003B3F5800F0BD1994B1B68D1
:100C6C0003F40033002B5BD07B685B68002B57D1FF
:100C7C00012308E27B685B68B3F5803F06D1914A9B
:100C8C00904B1B6843F4803313601DE07B685B68FA
:100C9C00B3F5A02F0CD18B4A8A4B1B6843F48023ED
:100CAC001360884A874B1B6843F4803313600BE056
:100CBC00844A844B1B6823F480331360814A814B34
:100CCC001B6823F4802313607B685B68002B13D0B4
:100CDC00FFF762FC386108E0FFF75EFC02463B69F7
:100CEC00D31A642B01D90323CDE1764B1B6803F493
:100CFC000033002BF0D014E0FFF74EFC386108E015
:100D0C00FFF74AFC02463B69D31A642B01D9032333
:100D1C00B9E16C4B1B6803F40033002BF0D100E0FD
:100D2C0000BF7B681B6803F00203002B63D0654B8C
:100D3C009B6803F00C03002B0BD0624B9B6803F0F9
:100D4C000C03082B1CD15F4B5B6803F48003002B56
:100D5C0016D15C4B1B6803F00203002B05D07B689B
:100D6C00DB68012B01D001238DE15649554B1B68E3
:100D7C0023F0F8027B681B69DB0013430B603AE03D
:100D8C007B68DB68002B20D04F4B01221A60FFF7E9
:100D9C0003FC386108E0FFF7FFFB02463B69D31AFE
:100DAC00022B01D903236EE1464B1B6803F00203AF
:100DBC00002BF0D04349434B1B6823F0F8027B68AF
:100DCC001B69DB0013430B6015E03F4B00221A60DC
:100DDC00FFF7E2FB386108E0FFF7DEFB02463B69F8
:100DEC00D31A022B01D903234DE1364B1B6803F0B8
:100DFC000203002BF0D17B681B6803F00803002B67
:100E0C0030D07B685B69002B16D0304B01221A6006
:100E1C00FFF7C2FB386108E0FFF7BEFB02463B69F7
:100E2C00D31A022B01D903232DE1264B5B6F03F060
:100E3C000203002BF0D015E0244B00221A60FFF7C0
:100E4C00ABFB386108E0FFF7A7FB02463B69D31AFE
:100E5C00022B01D9032316E11A4B5B6F03F002033B
:100E6C00002BF0D17B681B6803F00403002B00F00F
:100E7C00A0800023FB75134B1B6C03F08053002BDD
:100E8C000FD10023FB600F4A0E4B1B6C43F08053B9
:100E9C0013640C4B1B6C03F08053FB60FB68012349
:100EAC00FB750B4B1B6803F48073002B21D1084A94
:100EBC00074B1B6843F480731360FFF76DFB3861BD
:100ECC0011E000BF0038024000004742800E47424C
:100EDC0000700040FFF760FB02463B69D31A022BFF
:100EEC0001D90323CFE06A4B1B6803F48073002BFA
:100EFC00F0D07B689B68012B06D1664A654B1B6F53
:100F0C0043F0010313671CE07B689B68052B0CD135
:100F1C00604A604B1B6F43F0040313675D4A5D4BE3
:100F2C001B6F43F0010313670BE05A4A594B1B6FBD
:100F3C0023F001031367574A564B1B6F23F004032E
:100F4C0013677B689B68002B15D0FFF725FB386176
:100F5C000AE0FFF721FB02463B69D31A41F28832C3
:100F6C00934201D903238EE04A4B1B6F03F002031B
:100F7C00002BEED014E0FFF70FFB38610AE0FFF70F
:100F8C000BFB02463B69D31A41F28832934201D9DA
:100F9C00032378E03F4B1B6F03F00203002BEED1D1
:100FAC00FB7D012B05D13B4A3A4B1B6C23F0805344
:100FBC0013647B689B69002B64D0364B9B6803F0F1
:100FCC000C03082B5CD07B689B69022B41D1324B04
:100FDC0000221A60FFF7E0FA386108E0FFF7DCFA4C
:100FEC0002463B69D31A022B01D903234BE0294B50
:100FFC001B6803F00073002BF0D126497B68DA697B
:10100C007B681B6A1A437B685B6A9B011A437B688B
:10101C009B6A5B08013B1B041A437B68DB6A1B065B
:10102C0013434B601C4B01221A60FFF7B5FA386171
:10103C0008E0FFF7B1FA02463B69D31A022B01D93B
:10104C00032320E0134B1B6803F00073002BF0D03C
:10105C0018E0114B00221A60FFF79EFA386108E085
:10106C00FFF79AFA02463B69D31A022B01D90323E4
:10107C0009E0084B1B6803F00073002BF0D101E072
:10108C00012300E0002318461837BD4680BD00BF81
:10109C0000700040003802406000474280B584B0C8
:1010AC0000AF786039607B68002B01D10123CAE066
:1010BC00674B1B6803F00F023B689A420CD2644BDF
:1010CC003A68D2B21A70624B1B6803F00F023B688D
:1010DC009A4201D00123B6E07B681B6803F002033F
:1010EC00002B20D07B681B6803F00403002B05D079
:1010FC00584A584B9B6843F4E05393607B681B68D9
:10110C0003F00803002B05D0524A524B9B6843F462
:10111C00604393604F494F4B9B6823F0F0027B6810
:10112C009B6813438B607B681B6803F00103002BE7
:10113C0044D07B685B68012B07D1464B1B6803F4DA
:10114C000033002B19D101237DE07B685B68022BF7
:10115C0003D07B685B68032B07D13E4B1B6803F005
:10116C000073002B09D101236DE03A4B1B6803F08F
:10117C000203002B01D1012365E03649354B9B68F6
:10118C0023F003027B685B6813438B60FFF704FA60
:10119C00F8600AE0FFF700FA0246FB68D31A41F246
:1011AC008832934201D903234DE02A4B9B6803F00C
:1011BC000C027B685B689B009A42EBD1244B1B684A
:1011CC0003F00F023B689A420CD9214B3A68D2B219
:1011DC001A701F4B1B6803F00F023B689A4201D038
:1011EC00012330E07B681B6803F00403002B08D05C
:1011FC001849184B9B6823F4E0527B68DB68134357
:10120C008B607B681B6803F00803002B09D0114925
:10121C00104B9B6823F460427B681B69DB00134313
:10122C008B6000F01DF801460A4B9B681B0903F00C
:10123C000F03094AD35C21FA03F3084A1360002018
:10124C0001F0A0FF002318461037BD4680BD00BF3B
:10125C00003C024000380240183C000810000020FE
:10126C002DE9F04F8FB000AF0023FB6200237B63AE
:10127C000023BB6200233B63624B9B6803F00C03AF
:10128C00042B07D0082B08D0002B40F0B2805E4B0B
:10129C003B63B1E05D4B3B63AEE05A4B5B6803F0E4
:1012AC003F03FB62574B5B6803F48003002B4ED06B
:1012BC00544B5B689B094FF0000440F2FF114FF058
:1012CC00000201EA030102EA04020B461446600123
:1012DC007862786A40EAD36078625B013B62D7E956
:1012EC0008345B1A64EB02044FEA841949EA9369E7
:1012FC004FEA8318B8EB030869EB04094FEAC903FA
:10130C00FB61FB6943EA5873FB614FEAC803BB619D
:10131C00D7E9068918EB010849EB02094FEA492382
:10132C007B617B6943EAD8537B614FEA48233B617D
:10133C00D7E9048940464946FB6A4FF000041A4637
:10134C002346FEF763FF03460C467B6343E02D4BBD
:10135C005B689B094FF0000440F2FF114FF0000254
:10136C0001EA030102EA04020B4614466001F8602C
:10137C00F86840EAD360F8605B01BB60D7E90234DF
:10138C005B1A64EB0204A60146EA93669D01ED1A12
:10139C0066EB0406F3007B607B6843EA55737B6065
:1013AC00EB003B60D7E900566D1846EB02064FEA9E
:1013BC00862B4BEA955B4FEA852A55465E462846B6
:1013CC003146FB6A4FF000041A462346FEF71EFF17
:1013DC0003460C467B630B4B5B681B0C03F003034F
:1013EC0001335B00BB627A6BBB6AB2FBF3F33B630A
:1013FC0002E0054B3B6300BF3B6B18463C37BD46D8
:10140C00BDE8F08F003802400024F40000127A008E
:10141C0080B400AF034B1B681846BD465DF8047BD7
:10142C00704700BF1000002080B500AFFFF7F0FF41
:10143C000146054B9B689B0A03F00703034AD35CE8
:10144C0021FA03F3184680BD00380240283C0008FE
:10145C0080B500AFFFF7DCFF0146054B9B685B0BCB
:10146C0003F00703034AD35C21FA03F3184680BD4B
:10147C0000380240283C000880B483B000AF78608C
:10148C0039607B680F221A60124B9B6803F00302D1
:10149C007B685A600F4B9B6803F0F0027B689A6084
:1014AC000C4B9B6803F4E0527B68DA60094B9B6839
:1014BC00DB0803F4E0527B681A61074B1B6803F0EE
:1014CC000F023B681A6000BF0C37BD465DF8047B09
:1014DC00704700BF00380240003C024080B582B02B
:1014EC0000AF78607B68002B01D101231DE07B6885
:1014FC0093F83930DBB2002B06D17B68002283F8DD
:10150C003820786800F015F87B68022283F83920BF
:10151C007B681A687B6804331946104600F05EF944
:10152C007B68012283F83920002318460837BD4612
:10153C0080BD80B483B000AF786000BF0C37BD466F
:10154C005DF8047B704780B483B000AF78607B6833
:10155C001B687A681268D26842F00102DA607B6814
:10156C001B687A681268126842F001021A60002344
:10157C0018460C37BD465DF8047B704780B582B0C9
:10158C0000AF78607B681B681B6903F00203022BB9
:10159C0022D17B681B68DB6803F00203022B1BD192
:1015AC007B681B686FF002021A617B6801221A7655
:1015BC007B681B689B6903F00303002B03D07868DE
:1015CC0000F0EEF805E0786800F0E0F8786800F0DC
:1015DC00F1F87B6800221A767B681B681B6903F0A4
:1015EC000403042B22D17B681B68DB6803F0040323
:1015FC00042B1BD17B681B686FF004021A617B689B
:10160C0002221A767B681B689B6903F44073002BDB
:10161C0003D0786800F0C4F805E0786800F0B6F8FC
:10162C00786800F0C7F87B6800221A767B681B6824
:10163C001B6903F00803082B22D17B681B68DB684D
:10164C0003F00803082B1BD17B681B686FF00802A2
:10165C001A617B6804221A767B681B68DB6903F0CD
:10166C000303002B03D0786800F09AF805E0786843
:10167C0000F08CF8786800F09DF87B6800221A76F0
:10168C007B681B681B6903F01003102B22D17B684D
:10169C001B68DB6803F01003102B1BD17B681B68E5
:1016AC006FF010021A617B6808221A767B681B683F
:1016BC00DB6903F44073002B03D0786800F070F8FA
:1016CC0005E0786800F062F8786800F073F87B68E1
:1016DC0000221A767B681B681B6903F00103012B3F
:1016EC000ED17B681B68DB6803F00103012B07D16B
:1016FC007B681B686FF001021A61786801F05AFC74
:10170C007B681B681B6903F08003802B0ED17B6800
:10171C001B68DB6803F08003802B07D17B681B6898
:10172C006FF080021A61786800F00CF97B681B6816
:10173C001B6903F04003402B0ED17B681B68DB68F0
:10174C0003F04003402B07D17B681B686FF040020D
:10175C001A61786800F038F87B681B681B6903F025
:10176C002003202B0ED17B681B68DB6803F0200361
:10177C00202B07D17B681B686FF020021A617868F8
:10178C0000F0D6F800BF0837BD4680BD80B483B0EA
:10179C0000AF786000BF0C37BD465DF8047B704726
:1017AC0080B483B000AF786000BF0C37BD465DF8E5
:1017BC00047B704780B483B000AF786000BF0C37F7
:1017CC00BD465DF8047B704780B483B000AF786091
:1017DC0000BF0C37BD465DF8047B704780B485B004
:1017EC0000AF786039600023FB607B681B68FB608E
:1017FC007B68444A934213D07B68B3F1804F0FD07F
:10180C007B68414A93420BD07B68404A934207D095
:10181C007B683F4A934203D07B683E4A934201D196
:10182C00012300E00023002B08D0FB6823F0700399
:10183C00FB603B685B68FA681343FB607B68314A6A
:10184C0093422BD07B68B3F1804F27D07B682E4A14
:10185C00934223D07B682D4A93421FD07B682C4A3D
:10186C0093421BD07B682B4A934217D07B682A4A41
:10187C00934213D07B68294A93420FD07B68284A45
:10188C0093420BD07B68274A934207D07B68264A49
:10189C00934203D07B68254A934201D1012300E097
:1018AC000023002B08D0FB6823F44073FB603B68DB
:1018BC00DB68FA681343FB607B68FA681A603B6864
:1018CC009A687B68DA623B681A687B689A627B6804
:1018DC000C4A934203D07B680E4A934201D10123F8
:1018EC0000E00023002B03D03B681A697B681A6365
:1018FC007B6801225A6100BF1437BD465DF8047B3A
:10190C00704700BF00000140000400400008004088
:10191C00000C004000040140004001400044014024
:10192C000048014000180040001C0040002000400E
:10193C0080B483B000AF786000BF0C37BD465DF853
:10194C00047B704780B483B000AF786000BF0C3765
:10195C00BD465DF8047B704780B582B000AF7860FF
:10196C007B68002B01D101233FE07B6893F8393071
:10197C00DBB2002B06D17B68002283F83820786814
:10198C0001F0B0FB7B68242283F839207B681B684C
:10199C007A681268D26822F40052DA60786800F033
:1019AC007FFB7B681B687A681268126922F490428C
:1019BC001A617B681B687A681268526922F02A02E5
:1019CC005A617B681B687A681268D26842F40052CC
:1019DC00DA607B680022DA637B68202283F8392086
:1019EC007B68202283F83A20002318460837BD462E
:1019FC0080BD80B588B002AFF860B9603B6013461B
:101A0C00FB8000237B61FB6893F83930DBB2202B21
:101A1C0040F08280BB68002B02D0FB88002B01D1E8
:101A2C0001237AE0FB6893F83830012B01D10223B3
:101A3C0073E0FB68012283F83820FB680022DA632C
:101A4C00FB68212283F83920FEF7A6FD7861FB683C
:101A5C00FA889A84FB68FA88DA8441E0FB68DB8CAC
:101A6C009BB2013B9AB2FB68DA84FB689B68B3F5C6
:101A7C00805F21D13B6800937B6900228021F8684C
:101A8C0000F0ACF90346002B01D0032345E0BB6802
:101A9C003B61FB681B683A691288C2F308025A6002
:101AAC00FB681B69002B03D1BB680233BB6017E0DA
:101ABC00BB680133BB6013E03B6800937B69002279
:101ACC008021F86800F08AF90346002B01D003232B
:101ADC0023E0FB681A68BB68591CB9601B7853601B
:101AEC00FB68DB8C9BB2002BB8D13B6800937B6905
:101AFC0000224021F86800F071F90346002B01D058
:101B0C0003230AE0FB68202283F83920FB680022BB
:101B1C0083F83820002300E0022318461837BD460E
:101B2C0080BD80B485B000AFF860B9601346FB800F
:101B3C00FB6893F83A30DBB2202B38D1BB68002B12
:101B4C0002D0FB88002B01D1012331E0FB6893F814
:101B5C003830012B01D102232AE0FB68012283F8E3
:101B6C003820FB68BA689A62FB68FA889A85FB6829
:101B7C00FA88DA85FB680022DA63FB68222283F894
:101B8C003A20FB68002283F83820FB681B68FA684F
:101B9C001268526942F001025A61FB681B68FA68CC
:101BAC001268D26842F49072DA60002300E00223DB
:101BBC0018461437BD465DF8047B704780B588B075
:101BCC0000AF78607B681B681B68FB617B681B68D7
:101BDC00DB68BB617B681B685B697B6100233B61D5
:101BEC000023FB60FB6903F00F033B613B69002B97
:101BFC000DD1FB6903F02003002B08D0BB6903F067
:101C0C002003002B03D0786800F0D1F9CCE03B69BD
:101C1C00002B00F0AB807B6903F00103002B05D196
:101C2C00BB6903F49073002B00F0A080FB6903F0F8
:101C3C000103002B0AD0BB6903F48073002B05D081
:101C4C007B68DB6B43F001027B68DA63FB6903F0B2
:101C5C000403002B0AD07B6903F00103002B05D091
:101C6C007B68DB6B43F002027B68DA63FB6903F091
:101C7C000203002B0AD07B6903F00103002B05D073
:101C8C007B68DB6B43F004027B68DA63FB6903F06F
:101C9C000803002B0AD07B6903F00103002B05D04D
:101CAC007B68DB6B43F008027B68DA637B68DB6B79
:101CBC00002B78D0FB6903F02003002B07D0BB6905
:101CCC0003F02003002B02D0786800F070F97B68D9
:101CDC001B685B6903F04003002B14BF0123002336
:101CEC00DBB2FB607B68DB6B03F00803002B02D1DB
:101CFC00FB68002B31D0786800F0BAF87B681B6861
:101D0C005B6903F04003002B23D07B681B687A6867
:101D1C001268526922F040025A617B685B6B002B9F
:101D2C0013D07B685B6B224A1A657B685B6B184629
:101D3C00FEF73CFD0346002B16D07B685B6B1B6DDE
:101D4C007A68526B104698470EE0786800F03CF8C1
:101D5C000AE0786800F038F806E0786800F034F8AB
:101D6C007B680022DA631EE000BF1CE0FB6903F015
:101D7C008003002B08D0BB6903F08003002B03D039
:101D8C00786800F0A7F80FE0FB6903F04003002B24
:101D9C000AD0BB6903F04003002B05D0786800F033
:101DAC00EEF800BF00E000BF2037BD4680BD00BF8D
:101DBC00B91E000880B483B000AF786000BF0C3748
:101DCC00BD465DF8047B704780B483B000AF78608B
:101DDC0000BF0C37BD465DF8047B704780B584B0FE
:101DEC0000AFF860B9603B601346FB712CE0BB6937
:101DFC00B3F1FF3F28D0BB69002B07D0FEF7CCFB1B
:101E0C0002463B68D21ABB699A421DD9FB681B6813
:101E1C00FA681268D26822F4D072DA60FB681B6828
:101E2C00FA681268526922F001025A61FB6820229A
:101E3C0083F83920FB68202283F83A20FB680022C3
:101E4C0083F8382003230FE0FB681B681A68BB6813
:101E5C001A40BB689A420CBF01230023DBB21A461E
:101E6C00FB799A42C3D0002318461037BD4680BD7B
:101E7C0080B483B000AF78607B681B687A681268A6
:101E8C00D26822F49072DA607B681B687A681268F8
:101E9C00526922F001025A617B68202283F83A20B1
:101EAC0000BF0C37BD465DF8047B704780B584B02D
:101EBC0000AF78607B689B6BFB60FB680022DA8567
:101ECC00FB680022DA84F868FFF77EFF00BF10374A
:101EDC00BD4680BD80B485B000AF78607B6893F858
:101EEC003930DBB2212B43D17B689B68B3F5805F23
:101EFC0019D17B681B6AFB607B681B68FA681288C7
:101F0C00C2F308025A607B681B69002B05D17B6801
:101F1C001B6A9A1C7B681A620EE07B681B6A5A1C4F
:101F2C007B681A6208E07B681A687B681B6A581C1D
:101F3C00796808621B7853607B68DB8C9BB2013B31
:101F4C009BB27A681946D184002B0FD17B681B6831
:101F5C007A681268D26822F08002DA607B681B68AB
:101F6C007A681268D26842F04002DA60002300E01E
:101F7C00022318461437BD465DF8047B704780B5C4
:101F8C0082B000AF78607B681B687A681268D26890
:101F9C0022F04002DA607B68202283F839207868CE
:101FAC00FFF708FF002318460837BD4680BD80B5F3
:101FBC0084B000AF78607B6893F83A30DBB2222BA8
:101FCC0069D17B689B68B3F5805F23D17B689B6A82
:101FDC00FB607B681B69002B0ED17B681B685B6800
:101FEC009BB2C3F308039AB2FB681A807B689B6AA6
:101FFC009A1C7B689A6229E07B681B685B689BB2C1
:10200C00DBB29AB2FB681A807B689B6A5A1C7B68AD
:10201C009A621BE07B681B69002B0AD17B689B6A68
:10202C00591C7A6891627A6812685268D2B21A7036
:10203C000CE07B689B6A591C7A6891627A6812681A
:10204C005268D2B202F07F02D2B21A707B68DB8D7A
:10205C009BB2013B9BB27A681946D185002B18D1F3
:10206C007B681B687A681268D26822F49072DA6016
:10207C007B681B687A681268526922F001025A6107
:10208C007B68202283F83A20786800F0FFFD00235B
:10209C0002E0002300E0022318461037BD4680BD45
:1020AC00F0B585B000AF78600023FB607B681B68DF
:1020BC001B69FB60FB6823F44053FB607B68DB68A7
:1020CC00FA681343FB607B681B68FA681A617B68CB
:1020DC001B68DB68FB60FB6823F4164323F00C03DE
:1020EC00FB607B689A687B681B691A437B685B6939
:1020FC001A437B68DB691343FA681343FB607B6804
:10210C001B68FA68DA607B681B685B69FB60FB68BC
:10211C0023F44073FB607B689B69FA681343FB6094
:10212C007B681B68FA685A617B68DB69B3F5004F02
:10213C0040F0E4807B681B68AB4A934204D07B6818
:10214C001B68AA4A93426CD17B681C68FFF780F924
:10215C00024613469B0013449A001A447B685B6842
:10216C005B00B2FBF3F3A24AA2FB03235B091D0144
:10217C00FFF76EF9024613469B0013449A001A446B
:10218C007B685B685B00B2FBF3F6FFF761F9024614
:10219C0013469B0013449A001A447B685B685B00EF
:1021AC00B2FBF3F3924AA2FB03235B09642202FB0A
:1021BC0003F3F31ADB0032338D4AA2FB03235B09D2
:1021CC005B0003F4F8731D44FFF742F90246134613
:1021DC009B0013449A001A447B685B685B00B2FB5B
:1021EC00F3F6FFF735F9024613469B0013449A00A9
:1021FC001A447B685B685B00B2FBF3F37C4AA2FB7E
:10220C0003235B09642202FB03F3F31ADB00323372
:10221C00774AA2FB03235B0903F007032B44A3605B
:10222C0054E17B681C68FFF7FFF8024613469B00DD
:10223C0013449A001A447B685B685B00B2FBF3F3AF
:10224C006B4AA2FB03235B091D01FFF7EDF8024665
:10225C0013469B0013449A001A447B685B685B002E
:10226C00B2FBF3F6FFF7E0F8024613469B0013446B
:10227C009A001A447B685B685B00B2FBF3F35C4A20
:10228C00A2FB03235B09642202FB03F3F31ADB00BA
:10229C003233574AA2FB03235B095B0003F4F87348
:1022AC001D44FFF7C1F8024613469B0013449A00E5
:1022BC001A447B685B685B00B2FBF3F6FFF7B4F87B
:1022CC00024613469B0013449A001A447B685B68D1
:1022DC005B00B2FBF3F3464AA2FB03235B096422C7
:1022EC0002FB03F3F31ADB003233414AA2FB032354
:1022FC005B0903F007032B44A360E7E07B681B68D2
:10230C00394A934204D07B681B68384A934271D196
:10231C007B681C68FFF79CF8024613469B0013442D
:10232C009A001A447B685B689B00B2FBF3F3304A5B
:10233C00A2FB03235B091D01FFF78AF80246134633
:10234C009B0013449A001A447B685B689B00B2FBA9
:10235C00F3F6FFF77DF8024613469B0013449A00F0
:10236C001A447B685B689B00B2FBF3F3204AA2FB28
:10237C0003235B09642202FB03F3F31A1B013233C0
:10238C001B4AA2FB03235B0903F0F0031D44FFF778
:10239C005FF8024613469B0013449A001A447B686C
:1023AC005B689B00B2FBF3F6FFF752F8024613464C
:1023BC009B0013449A001A447B685B689B00B2FB39
:1023CC00F3F30B4AA2FB03235B09642202FB03F326
:1023DC00F31A1B013233064AA2FB03235B0903F0F9
:1023EC000F032B44A36071E0001001400014014066
:1023FC001F85EB517B681C68FFF716F802461346E5
:10240C009B0013449A001A447B685B689B00B2FBE8
:10241C00F3F3304AA2FB03235B091D01FFF704F819
:10242C00024613469B0013449A001A447B685B686F
:10243C009B00B2FBF3F6FEF7F7FF024613469B0038
:10244C0013449A001A447B685B689B00B2FBF3F35D
:10245C00204AA2FB03235B09642202FB03F3F31A59
:10246C001B0132331B4AA2FB03235B0903F0F0036D
:10247C001D44FEF7D9FF024613469B0013449A00F5
:10248C001A447B685B689B00B2FBF3F6FEF7CCFF4B
:10249C00024613469B0013449A001A447B685B68FF
:1024AC009B00B2FBF3F30B4AA2FB03235B096422F0
:1024BC0002FB03F3F31A1B013233064AA2FB03237C
:1024CC005B0903F00F032B44A360FFE700BF143735
:1024DC00BD46F0BD1F85EB5180B584B000AFF860F0
:1024EC007B600B46FB721346BB72F868BA7AF97ABA
:1024FC007B6800F0A9F9FB6818461037BD4680BD13
:10250C0080B582B000AF7860174B1B68184600F09E
:10251C00ECFA0346002B14BF01230023DBB2002B83
:10252C0005D0114B1B68184600F046FBECE70E4B30
:10253C001B687968184600F0E4FA0B4B1B68FF2106
:10254C00184600F0F4FA084B1B68FF21184600F0FF
:10255C00EEFA054B1B68FF21184600F0E8FA00BFA5
:10256C000837BD4680BD00BF9400002080B584B004
:10257C0000AF78600023FB730023BB60154B1B6816
:10258C007968184600F0A3FA124B1B6807F1080192
:10259C000422184600F0DDFA0346042B14BF012375
:1025AC000023DBB2002B01D00023FB733B7A012B01
:1025BC000AD17B7AFF2B07D1BB7AFF2B04D1FB7A94
:1025CC00FF2B01D10123FB73FB7B18461037BD4653
:1025DC0080BD00BF9400002080B584B000AF78604F
:1025EC00134A7B6813600023FB730023BB731148F1
:1025FC00FFF786FF1048FFF783FF6420FFF7B6FF55
:10260C000346FB730D48FFF77BFF6420FFF7AEFF1B
:10261C000346BB73FB7B002B04D0BB7B002B01D090
:10262C00012300E0002318461037BD4680BD00BFD3
:10263C0094000020EC3A0008F03A0008F83A000840
:10264C0090B585B000AF78602D4B1B68184600F034
:10265C004CFA0346002BCCBF01230023DBB2002B2A
:10266C0049D00A20FDF7A4FF254B1B68184600F043
:10267C00A3FA03467B737B7B652BE5D1204B1B6850
:10268C00184600F032FA0346052BCCBF0123002379
:10269C00DBB2002BD8D01B4A7B7B13700123FB8150
:1026AC00FB89062B0DDCFC89154B1B68184600F0CA
:1026BC0083FA03461A46134B1A55FB890133FB81E7
:1026CC00EEE7FB890F4A0021D1540E4B1B79FF2BEF
:1026DC00BAD10C4B5B79FF2BB6D10A4B9B79FF2BF4
:1026EC00B2D1084B5978074B9A78064BDB7878684F
:1026FC0000F000F9A8E700BF1437BD4690BD00BF3D
:10270C00940000209800002080B485B000AFF860E1
:10271C007B600B46FB721346BB72FB68FA7A1A702D
:10272C00FB68BA7A5A70FB687A685A60FB6818467C
:10273C001437BD465DF8047B704780B483B000AF9E
:10274C0078607B681B7818460C37BD465DF8047BB7
:10275C00704780B483B000AF78607B685B781846B4
:10276C000C37BD465DF8047B704780B483B000AF76
:10277C0078607B685B6818460C37BD465DF8047B57
:10278C00704780B483B000AF786000BF0C37BD4693
:10279C005DF8047B704780B584B000AFF8607B6057
:1027AC000B46FB721346BB72F868BA7AF97A7B68EF
:1027BC0000F04AF8FB6818461037BD4680BD000093
:1027CC0090B589B000AF7860396007F108031846FE
:1027DC0000F06EFE7B681846FFF7C7FF024607F154
:1027EC0008031146184600F0A9FE07F10803144926
:1027FC00184600F0A3FE07F108033968184600F0EC
:10280C009DFE07F108030F49184600F097FE07F1EB
:10281C000803184600F096FE03461846FFF770FEB4
:10282C006420FFF7A3FE03461C4607F10803184675
:10283C0000F045FE234618462437BD4690BD00BF28
:10284C00143B00081C3B000880B584B000AFF86056
:10285C007B600B46FB721346BB72F868BA7AF97A46
:10286C007B68FFF751FFFB6800229A60FB6800222F
:10287C001A61FB6800225A61FB680022DA60FB686F
:10288C0018461037BD4680BD80B485B000AFF860E7
:10289C00B9607A60FB68BA681A61FB687A685A6139
:1028AC0000BF1437BD465DF8047B704780B582B01D
:1028BC0000AF78607B689B68002B05D07B689B68B9
:1028CC007A68D2681046984700BF0837BD4680BD6D
:1028DC0080B582B000AF78607B681B69002B05D097
:1028EC007B681B697A6852691046984700BF0837A5
:1028FC00BD4680BD80B586B000AFF8607B600B46EE
:10290C00FB721346BB7200233B610023FB82FB6806
:10291C00002B3CD00023FB82FB8A9B00FA681344FB
:10292C001B683B613B69002B14BF01230023DBB206
:10293C00002B2FD03B691846FFF7FFFE03461A46C3
:10294C00FB7A93420AD13B691846FFF702FF034614
:10295C001A46BB7A934201D1012300E00023002BDD
:10296C0011D03B691846FFF70CFF7B68012B03D194
:10297C003869FFF79BFF0CE07B68002B09D13869A5
:10298C00FFF7A6FF05E0FB8A0133FB82C4E700BF1B
:10299C0000E000BF1837BD4680BD000080B584B094
:1029AC0000AFF860B9601346FB801F4AFB681A60E1
:1029BC00FB88184600F0F4FC03461A46FB68DA6004
:1029CC00FB684FF47A729A60FB68BA685A60FB68CD
:1029DC0000221A82FB6800225A82FB6800229A7538
:1029EC00FB6800229A82FB68FA881A83FB68DB6812
:1029FC004FF400620021184600F039FFFB681633D3
:102A0C0001221946B868FFF78CF80346002B14BF57
:102A1C0001230023DBB2002B00D0EFE7FB68184644
:102A2C001037BD4680BD00BFAC3B000880B483B0FE
:102A3C0000AF7860044A7B681A607B6818460C37D4
:102A4C00BD465DF8047B7047AC3B000880B582B096
:102A5C0000AF78607868FFF7E9FF1C21786800F018
:102A6C00A1FC7B6818460837BD4680BD90B583B085
:102A7C0000AF78600B46FB707B689B8A1A467B68BC
:102A8C001B8B9A421FDA7B68DC68786800F0D6F8FA
:102A9C0003462344FA781A707B689B8A01339AB2F6
:102AAC007B689A827B6858687B68163301221946CA
:102ABC00FFF737F80346002B14BF01230023DBB2CA
:102ACC00002B01D0EEE700BF0C37BD4690BD80B4A3
:102ADC0083B000AF786039607B683A689A6000BF59
:102AEC000C37BD465DF8047B704780B483B000AFF3
:102AFC0078607B689B8A18460C37BD465DF8047B72
:102B0C00704780B584B000AF786039603868FDF7E5
:102B1C0005FD0346FB817B6858687B689B68FA89D6
:102B2C003968FEF766FF00BF1037BD4680BD80B523
:102B3C0082B000AF78600B46FB707B6858687B688E
:102B4C009B68F91C0122FEF754FF00BF0837BD46F5
:102B5C0080BD80B588B000AFF860B9601346FB80CB
:102B6C000023FB830023BB61FA88BB699A421EDDFC
:102B7C00F86800F03EF878617B69B3F1FF3F15D03F
:102B8C00FB8BBA681344FA68D1687A690A441278E4
:102B9C001A70FB8B0133FB83FB689B8A013B9AB257
:102BAC00FB689A82BB690133BB61DDE700BFFB8B1D
:102BBC0018462037BD4680BD80B584B000AF786024
:102BCC00786800F016F8F860FB68B3F1FF3F0BD0A3
:102BDC007B689B8A013B9AB27B689A827B68DA6835
:102BEC00FB6813441B7800E0002318461037BD46E1
:102BFC0080BD80B485B000AF78607B685B8AFB8158
:102C0C007B689B8A002B02D14FF0FF3310E07B686E
:102C1C005A8A7B681B8B9A4203D17B6800225A82AA
:102C2C0005E07B685B8A01339AB27B685A82FB8928
:102C3C0018461437BD465DF8047B704780B485B0E8
:102C4C0000AF78607B681B8AFB817B689A8A7B6803
:102C5C001B8B9A4202D14FF0FF3310E07B681A8A2B
:102C6C007B681B8B9A4203D17B6800221A8205E099
:102C7C007B681B8A01339AB27B681A82FB891846DF
:102C8C001437BD465DF8047B7047000080B582B0F8
:102C9C0000AF78607B681B680A4A93420DD10A4BDF
:102CAC001B68002B09D0084B1A687B681B685B6893
:102CBC00DBB219461046FFF7D9FE00BF0837BD46F8
:102CCC0080BD00BF00100140E400002080B582B040
:102CDC0000AF786006490748FFF772FD01224021DA
:102CEC000548FDF72FFF00BF0837BD4680BD00BF6C
:102CFC00B83B0008E80000200014024080B582B008
:102D0C0000AF786006490748FFF75AFD00224021C2
:102D1C000548FDF717FF00BF0837BD4680BD00BF53
:102D2C00CC3B0008E80000200014024098B500AF2E
:102D3C00FDF7FCFB00F032F800F0DEF800F0AEF826
:102D4C001C2000F01CFB03461C4640220C4920466C
:102D5C00FFF724FE0B4B1C600A4B1B681846FFF751
:102D6C003BFC094A09490848FFF78EFD084A094906
:102D7C000748FFF789FD0848FFF762FCFBE700BF37
:102D8C00A4000020E400002048010020D92C0008F9
:102D9C0060010020092D00080800002080B594B0C7
:102DAC0000AF07F1200330220021184600F05FFD30
:102DBC0007F10C0300221A605A609A60DA601A61FB
:102DCC000023BB60334A334B1B6C43F080531364BA
:102DDC00304B1B6C03F08053BB60BB6800237B60E3
:102DEC002D4A2D4B1B6843F4404313602A4B1B6840
:102DFC0003F440437B607B6801233B624FF48033D8
:102E0C007B620223BB634FF48003FB6308233B64A8
:102E1C004FF4B4737B640223BB640423FB6407F19B
:102E2C0020031846FDF7F8FE0346002B14BF0123C0
:102E3C000023DBB2002B01D000F0CEF8FDF79CFE96
:102E4C000346002B14BF01230023DBB2002B01D05F
:102E5C0000F0C2F80F23FB6002233B6100237B616F
:102E6C004FF4A053BB614FF48053FB6107F10C038B
:102E7C0005211846FEF712F90346002B14BF012357
:102E8C000023DBB2002B01D000F0A6F800BF5037B6
:102E9C00BD4680BD003802400070004080B500AFD8
:102EAC00134B144A1A60124B4FF416525A60104BC3
:102EBC0000229A600E4B0022DA600D4B00221A6140
:102ECC000B4B0C225A610A4B00229A61084B0022D0
:102EDC00DA610748FEF740FD0346002B14BF0123BF
:102EEC000023DBB2002B01D000F076F800BF80BDD0
:102EFC00A40000200010014080B58AB000AF07F19B
:102F0C00140300221A605A609A60DA601A61002376
:102F1C003B61264A254B1B6B43F020031363234B69
:102F2C001B6B03F020033B613B690023FB601F4AD2
:102F3C001E4B1B6B43F0800313631C4B1B6B03F08A
:102F4C008003FB60FB680023BB60184A174B1B6BAC
:102F5C0043F001031363154B1B6B03F00103BB60C0
:102F6C00BB6800237B60114A104B1B6B43F00203C0
:102F7C0013630E4B1B6B03F002037B607B68002218
:102F8C0040210B48FDF7DEFD40237B610123BB6133
:102F9C000023FB6100233B6207F11403194604482C
:102FAC00FDF726FC00BF2837BD4680BD0038024027
:102FBC000014024080B582B000AF78607B681B685B
:102FCC00044A934201D1FDF7D3FA00BF0837BD463E
:102FDC0080BD00BF0014004080B400AF00BFBD46F0
:102FEC005DF8047B7047000080B582B000AF78605C
:102FFC0039607B68012B28D13B684FF6FF729342F6
:10300C0023D1144B082200211348FFF7C4FB134BA8
:10301C00052200211248FFF7BEFB124B01220021B2
:10302C001148FFF7B8FB114B032200211048FFF7A2
:10303C00B2FB104B062200210F48FFF74DFA0F4B45
:10304C00072200210E48FFF747FA00BF0837BD469C
:10305C0080BD00BFE43B0008E8000020EC3B00080A
:10306C0000010020F83B000818010020003C00087B
:10307C0030010020083C000848010020103C0008EA
:10308C006001002080B500AF4FF6FF710120FFF703
:10309C00ABFF80BD80B483B000AF00237B60104ACF
:1030AC000F4B5B6C43F4804353640D4B5B6C03F42C
:1030BC0080437B607B6800233B60094A084B1B6C98
:1030CC0043F080531364064B1B6C03F080533B603E
:1030DC003B6800BF0C37BD465DF8047B704700BFF2
:1030EC000038024080B58AB000AF786007F1140355
:1030FC0000221A605A609A60DA601A617B681B6859
:10310C001D4A934234D100233B611C4A1B4B5B6C20
:10311C0043F010035364194B5B6C03F010033B61D9
:10312C003B690023FB60154A144B1B6B43F00103F6
:10313C001363124B1B6B03F00103FB60FB684FF432
:10314C00C0637B610223BB610123FB6103233B62F0
:10315C0007237B6207F1140319460948FDF748FB66
:10316C00002200212520FDF7F7FA2520FDF710FBA2
:10317C0000BF2837BD4680BD00100140003802401A
:10318C000000024080B58CB000AF78600023FB6279
:10319C000023BB62002279683720FDF7DDFA372067
:1031AC00FDF7F6FA0023FB601F4A1F4B1B6C43F024
:1031BC00200313641C4B1B6C03F02003FB60FB68A7
:1031CC0007F1100207F1140311461846FEF754F9E3
:1031DC00FEF72AF903465B00FB62FB6A134AA2FB6B
:1031EC0003239B0C013BBB62114B124A1A60104B20
:1031FC0040F2E732DA600E4ABB6A53600C4B002295
:10320C001A610B4B00229A600948FEF767F90346D6
:10321C00002B04D10648FEF796F9034600E0012383
:10322C0018463037BD4680BD0038024083DE1B4354
:10323C002C0200200014004080B400AF00BFBD463B
:10324C005DF8047B704780B400AFFEE780B400AF3C
:10325C00FEE780B400AFFEE780B400AFFEE780B4B9
:10326C0000AF00BFBD465DF8047B704780B400AF73
:10327C0000BFBD465DF8047B704780B400AF00BF53
:10328C00BD465DF8047B704780B400AF00BFBD46FF
:10329C005DF8047B7047000080B500AF0248FEF774
:1032AC008DFC00BF80BD00BFA400002080B500AF26
:1032BC000248FEF763F900BF80BD00BF2C0200205E
:1032CC0080B400AF164A164BD3F8883043F4700321
:1032DC00C2F88830134A134B1B6843F00103136088
:1032EC00104B00229A600F4A0E4B1B6823F084731C
:1032FC0023F4803313600B4B0B4A5A60094A094B79
:10330C001B6823F480231360064B0022DA60044B05
:10331C004FF000629A6000BFBD465DF8047B7047B9
:10332C0000ED00E00038024010300024DFF834D00B
:10333C00002103E00C4B5B58435004310B480C4B01
:10334C0042189A42F6D30B4A02E0002342F8043B9F
:10335C00094B9A42F9D3FFF7B3FF00F049FAFFF794
:10336C00E5FC704700000320E43C0008000000204E
:10337C0078000020780000206C020020FEE710B5D9
:10338C00002814BF04460124204600F055FA30B939
:10339C0000F00AF808B900F023FA8047F4E710BDF2
:1033AC00FFF7EDBF00F008B8024B1868BFF35B8F56
:1033BC00704700BF7801002000F046BA0AB100F057
:1033CC004BBA704708B50B68002B02DA094800F0BD
:1033DC00BBF8934208D95200934205D2002AB6BFDB
:1033EC006FF000430A600B600868BDE808400130CC
:1033FC00FFF7C5BF453C0008034653F8080B98423D
:10340C0001D0FFF7D9BF704701F100414068013985
:10341C00091A914208B502D2184600F095F808BD79
:10342C00012A10B502D10A78027010BDFFF7C6FF51
:10343C0010BD2DE9F347DDF82880164642689A4600
:10344C00A8EB0603571A13440268019300F1080312
:10345C009A420D4614BF82680F2201A90446FFF759
:10346C00B1FFBF1B81461DB12A462168FFF7D8FF6B
:10347C00BAF1000F08D0B8F1000F05D04246514602
:10348C0009EB0500FFF7CCFF47B121682E4405EB93
:10349C0008003A4631444844FFF7C2FF2046FFF784
:1034AC00ABFF019BC4F80090A36002B0BDE8F087AD
:1034BC0000F108020260002242600272704710B5EF
:1034CC000446FFF799FF204610BD73B50446264607
:1034DC00406856F8083BB34218BFA66800EB0205DB
:1034EC0008BF0F26B5420AD812B11844FFF798FF4F
:1034FC0023686560002220465A5502B070BD0092C8
:10350C000B46002201462046FFF793FFF0E7000030
:10351C0070B5044608460D46FDF700F8064B064606
:10352C00024600212046FFF76FFF3246294620460F
:10353C00FFF7CBFF70BD00BF303C000808B5FFF7AC
:10354C00E7FF08BD0068704708B500F049F90000B6
:10355C00244B1A68D0075CBF01221A60224B1A68F0
:10356C00D1075CBF01221A60204B1A68D2075CBFDE
:10357C0001221A601E4B1A68D0075CBF01221A6028
:10358C001C4B1A68D1075CBF01221A601A4B1A68CF
:10359C00D2075CBF01221A60184B1A68D0075CBFB7
:1035AC0001221A60164B1A68D1075CBF01221A60FF
:1035BC00144B1A68D2075CBF01221A60124B1A68AE
:1035CC00D0075CBF01221A60104B1A68D1075CBF90
:1035DC0001221A600E4B1A68D2075CBF01221A60D6
:1035EC00704700BFA8010020A4010020A00100200A
:1035FC009C010020980100209401002090010020E3
:10360C008C01002088010020840100208001002012
:10361C007C010020244B1A68D0075CBF01221A6081
:10362C00224B1A68D1075CBF01221A60204B1A6822
:10363C00D2075CBF01221A601E4B1A68D0075CBF10
:10364C0001221A601C4B1A68D1075CBF01221A6058
:10365C001A4B1A68D2075CBF01221A60184B1A6801
:10366C00D0075CBF01221A60164B1A68D1075CBFE9
:10367C0001221A60144B1A68D2075CBF01221A602F
:10368C00124B1A68D0075CBF01221A60104B1A68E3
:10369C00D1075CBF01221A600E4B1A68D2075CBFBF
:1036AC0001221A60704700BFD8010020D40100200D
:1036BC00D0010020CC010020C8010020C401002052
:1036CC00C0010020BC010020B8010020B401002082
:1036DC00B0010020AC010020184B1A68D1075CBF68
:1036EC0001221A60164B1A68D2075CBF01221A60BD
:1036FC00144B1A68D0075CBF01221A60124B1A686F
:10370C00D1075CBF01221A60104B1A68D2075CBF4C
:10371C0001221A600E4B1A68D0075CBF01221A6096
:10372C000C4B1A68D1075CBF01221A600A4B1A684D
:10373C00D2075CBF01221A60704700BFF80100205D
:10374C00F4010020F0010020EC010020E801002031
:10375C00E4010020E0010020DC010020184B1A6875
:10376C00D1075CBF01221A60164B1A68D2075CBFE6
:10377C0001221A60144B1A68D0075CBF01221A6030
:10378C00124B1A68D1075CBF01221A60104B1A68E1
:10379C00D2075CBF01221A600E4B1A68D0075CBFBF
:1037AC0001221A600C4B1A68D1075CBF01221A6007
:1037BC000A4B1A68D2075CBF01221A60704700BF1F
:1037CC001802002014020020100200200C0200201D
:1037DC00080200200402002000020020FC0100204E
:1037EC0008B5062000F030F9012000F069F900005E
:1037FC0070B50D4E0D4CA41BA4100025A54209D18B
:10380C000B4E0C4C00F05EF9A41BA4100025A54235
:10381C0005D170BD56F8253098470135EEE756F8BE
:10382C00253098470135F2E7C83C0008C83C000831
:10383C00C83C0008E03C0008024B0146186800F048
:10384C006DB800BF14000020024B0146186800F050
:10385C0017B800BF1400002010B5431E0A44914253
:10386C0000D110BD11F8014B03F8014FF7E70244EA
:10387C000346934200D1704703F8011BF9E700009F
:10388C0038B50546002945D051F8043C0C1F002BD7
:10389C00B8BFE41800F0F4F81F4A1368104633B9A7
:1038AC00636014602846BDE8384000F0EAB8A342D3
:1038BC000CD921686218934204BF1A685B68636074
:1038CC0004BF521822600460ECE713465A680AB130
:1038DC00A242FAD919685818A0420BD120680144A9
:1038EC00581882421960DDD1106852685A60014440
:1038FC001960D7E702D90C232B60D3E72068211875
:10390C008A4204BF11685268626004BF09182160C2
:10391C005C60C7E738BD00BF1C02002070B5CD1C31
:10392C0025F0030508350C2D38BF0C25002D064657
:10393C0001DBA94203D90C233360002070BD00F0D9
:10394C009FF8234A1468214691B9224C23681BB96D
:10395C00304600F041F820602946304600F03CF833
:10396C00431C26D10C233360304600F08AF8E4E780
:10397C000B685B1B1AD40B2B0FD90B60CD50CC18DA
:10398C00304600F07EF804F10B00231D20F00700F8
:10399C00C31A1BD05A42E25070BD8C420DBF6368F3
:1039AC004B686360136018BF0C46E9E70C46496826
:1039BC00CAE7C41C24F00304A04205D0211A3046E7
:1039CC0000F00AF80130CDD02560D9E770BD00BFFA
:1039DC001C0200202002002038B5064C00230546AE
:1039EC000846236000F05EF8431C02D1236803B143
:1039FC002B6038BD680200201F2938B504460D46DF
:103A0C0004D9162303604FF0FF3038BD426C12B15D
:103A1C0052F821304BB9204600F030F82A460146C6
:103A2C002046BDE8384000F017B8012B0AD0591CCD
:103A3C0003D116230360012038BD002442F8254031
:103A4C0028469847002038BD024B01461868FFF7FE
:103A5C00D3BF00BF1400002038B5074C0023054627
:103A6C0008461146236000F015F8431C02D1236868
:103A7C0003B12B6038BD00BF6802002000F002B813
:103A8C0070477047024B58221A604FF0FF30704756
:103A9C0068020020024B58221A604FF0FF3070472A
:103AAC0068020020044A05491368002B08BF0B4626
:103ABC001844106018467047240200207002002041
:103ACC00FEE700BFF8B500BFF8BC08BC9E467047C7
:0C3ADC00F8B500BFF8BC08BC9E4670475F
:103AE8000000000000000000626B636D643D31005F
:103AF8007061676520300000000000006765742071
:103B0800000000002E747874000000002E74787491
:103B18003D220000220000002E62636F00000000BA
:103B28002E62636F3D000000000000007265662091
:103B3800000000002E70636F000000002E70636F9D
:103B48003D0000002E7863656E0000002E786365E6
:103B58006E3D00002E7963656E0000002E79636566
:103B68006E3D00002E666F6E740000002E666F6E4C
:103B7800743D00002E706963630000002E70696355
:103B8800633D00002E706963000000002E706963B9
:103B98003D000000000000000D0A000000000000C9
:103BA80000000000392A0008592A00080000000017
:103BB80049736C656D206261736C6174696C6469CA
:103BC8002E00000049736C656D20736F6E6C616E1A
:103BD800646972696C64692E000000007453746132
:103BE80074757300744D6573736167650000000038
:103BF800744D696E75746500745365636F6E640007
:103C080062537461727400006253746F7000000034
:103C18000000000000000000010203040607080974
:103C2800000000000102030462617369635F73743A
:103C380072696E673A3A617070656E6400626173AA
:103C480069635F737472696E673A3A5F4D5F637256
:103C580065617465000000000000000000000000BD
:103C6800000000000000000000000000000000004C
:103C7800000000000000000000000000000000003C
:103C8800000000000000000000000000000000002C
:103C9800000000000000000000000000000000001C
:103CA800000000000000000000000000000000000C
:083CB800000000000000000004
:083CC00088C5FF7F0100000030
:103CC800D1010008913000085D3500082136000850
:083CD800E53600086937000819
:043CE000AD0100082A
:103CE40010000000010000004801002060010020D5
:103CF4000024F4001800002000000000803C0008AC
:103D0400A03C0008603C0008000000000000000027
:103D1400000000000000000000000000000000009F
:103D2400000000000000000000000000000000008F
:103D3400000000000000000000000000000000007F
:103D4400000000000000000000000000000000006F
:083D5400000000000000000067
:040000050800333983
:00000001FF
