:020000040800F2
:1000000000000120593400084D330008593300081E
:100010005F330008653300086B3300080000000000
:100020000000000000000000000000007133000824
:100030007D33000800000000893300089533000874
:100040009D3400089D3400089D3400089D3400084C
:100050009D3400089D3400089D3400089D3400083C
:100060009D3400089D3400089D3400089D3400082C
:100070009D3400089D3400089D3400089D3400081C
:100080009D3400089D3400089D3400089D3400080C
:100090009D3400089D3400089D3400089D340008FC
:1000A0009D3400089D3400089D3400089D340008EC
:1000B0009D3400089D3400089D3400089D340008DC
:1000C0009D3400089D3400089D3400089D340008CC
:1000D0009D340008A1330008B53300089D340008A2
:1000E0009D3400089D3400089D3400080000000085
:1000F0000000000000000000000000000000000000
:1001000000000000000000009D3400089D3400083D
:100110009D3400089D3400089D340008C933000850
:100120009D3400089D3400089D3400089D3400086B
:100130009D34000800000000000000009D3400080D
:100140009D3400089D3400089D3400089D3400084B
:10015000000000000000000000000000000000009F
:10016000000000000000000000000000000000008F
:10017000000000000000000000000000000000007F
:10018000000000000000000000000000000000006F
:10019000000000000000000000000000000000005F
:1001A000000000000000000000000000000000004F
:1001B000000000000000000000000000000000003F
:1001C000000000000000000000000000000000002F
:1001D000000000000000000000000000000000001F
:0401E0005FF8E0F1F3
:1001E40010B5054C237833B9044B13B10448AFF36D
:1001F40000800123237010BD700000200000000067
:10020400943B00080C4B43B10C4810B50C49AFF3B8
:1002140000800C48036823B910BD0A48036833B949
:100224007047094B002BF7D0BDE810401847064B28
:10023400002BF5D0184700BF00000000943B0008D5
:1002440074000020700000200000000053B94AB977
:10025400002908BF00281CBF4FF0FF314FF0FF30CA
:1002640000F07AB9ADF1080C6DE904CE00F006F89F
:10027400DDF804E0DDE9022304B070472DE9F0471E
:100284008C460E460446089D002B50D18A421746E0
:100294006CD9B2FA82FEBEF1000F0BD0CEF1200C65
:1002A40001FA0EF620FA0CFC02FA0EF74CEA060CE0
:1002B40000FA0EF43A0CBCFBF2F9BBB202FB19CC07
:1002C40009FB03FA4FEA144848EA0C46B2450AD936
:1002D400F61909F1FF3180F02581B24540F22281FF
:1002E400A9F102093E44A6EB0A06B6FBF2F002FBB2
:1002F400106600FB03F3A4B244EA0644A34209D9FE
:10030400E41900F1FF3280F00B81A34240F208812E
:1003140002383C440021E41A40EA0940002D62D02E
:10032400002324FA0EF42C606B60BDE8F0878B4246
:1003340007D9002D55D0002185E841000846BDE8C5
:10034400F087B3FA83F1002940F08F80B34202D3DF
:10035400824200F2FC80841A66EB03060120B44654
:10036400002D40D085E81010BDE8F08712B90127B0
:10037400B7FBF2F7B7FA87FEBEF1000F35D10121C2
:10038400F61B4FEA174C1FFA87F8B6FBFCF20CFB7E
:10039400126608FB02F0230C43EA0646B04207D972
:1003A400F61902F1FF3302D2B04200F2D2801A46AB
:1003B400361AB6FBFCF00CFB106608FB00F8A3B27F
:1003C40043EA0644A04507D9E41900F1FF3302D2F9
:1003D400A04500F2B9801846A4EB080440EA0240A4
:1003E4009CE729462846BDE8F08707FA0EF7CEF1C8
:1003F400200326FA03F24FEA174CB2FBFCF11FFA72
:1004040087F80CFB112206FA0EF620FA03F301FB1F
:1004140008F933431E0C46EA0246B14500FA0EF4CD
:1004240009D9F61901F1FF3280F08C80B14540F210
:10043400898002393E44A6EB0906B6FBFCF00CFBAE
:10044400106200FB08F99EB246EA0246B14507D99C
:10045400F61900F1FF3371D2B1456FD902383E4429
:10046400A6EB090640EA01418FE7C1F1200722FA11
:1004740007F88B4048EA030326FA07F44FEA134EC1
:10048400B4FBFEF91FFA83FC0EFB19448E4020FADC
:1004940007F809FB0CFA48EA06084FEA184646EA48
:1004A4000444A24502FA01F200FA01F608D9E4185C
:1004B40009F1FF3044D2A24542D9A9F102091C44F2
:1004C400A4EB0A04B4FBFEF00EFB104400FB0CFC8E
:1004D4001FFA88F848EA0444A44507D9E41800F14F
:1004E400FF3E29D2A44527D902381C4440EA0940DA
:1004F400A0FB0289A4EB0C0CCC45C246CE4615D316
:1005040012D055B1B6EB0A036CEB0E0606FA07F7E8
:10051400CB401F43CE402F606E600021BDE8F087C2
:100524001046F7E68946DEE64645EAD2B8EB020A0B
:1005340069EB030E0138E4E77046D7E718468FE706
:100544008146BDE7114676E702383C4444E7084655
:1005540006E7023A3E442BE7704700BF034613F810
:10056400012B002AFBD1181A0138704780B500AF5F
:10057400084A084B1B6843F010031360032000F083
:10058400EDF8002002F088FE02F0C4FD00231846B6
:1005940080BD00BF0020024080B400AF054B1B7833
:1005A4001A46054B1B681344034A136000BFBD463B
:1005B40080BC704704000020F001002080B400AF2C
:1005C400024B1B681846BD4680BC7047F0010020F2
:1005D40080B584B000AF7860FFF7F0FFB8607B6847
:1005E400FB60FB68B3F1FF3F05D0094B1B781A464B
:1005F400FB681344FB6000BFFFF7E0FF0246BB68E3
:10060400D21AFB689A42F7D300BF1037BD4680BDAB
:100614000400002080B485B000AF78607B6803F0EC
:100624000703FB600C4BDB68BB60BA684FF6FF0343
:100634001340BB60FB681A02BB68134343F0BF63FB
:1006440043F40033BB60044ABB68D36000BF143773
:10065400BD4680BC704700BF00ED00E080B400AF31
:10066400044BDB681B0A03F007031846BD4680BC35
:10067400704700BF00ED00E080B483B000AF0346D4
:10068400FB71084997F907305B09FA7902F01F02F8
:10069400012000FA02F241F8232000BF0C37BD46C6
:1006A40080BC704700E100E080B483B000AF034633
:1006B4003960FB7197F90730002B0BDA0D49FB7990
:1006C40003F00F03043B3A68D2B21201D2B20B44D6
:1006D4001A7609E0084997F907303A68D2B212014C
:1006E400D2B20B4483F8002300BF0C37BD4680BC54
:1006F400704700BF00ED00E000E100E080B489B085
:1007040000AFF860B9607A60FB6803F00703FB612F
:10071400FB69C3F10703042B28BF0423BB61FB69F6
:100724000433062B02D9FB69033B00E000237B6101
:100734000122BB6902FA03F35A1EBB681A407B69A3
:100744009A4001217B6901FA03F3591E7B680B402F
:10075400134318462437BD4680BC704780B582B029
:1007640000AF78607868FFF755FF00BF0837BD46D3
:1007740080BD80B586B000AF0346B9607A60FB7374
:1007840000237B61FFF76AFF78617A68B96878694A
:10079400FFF7B4FF024697F90F3011461846FFF7EA
:1007A40083FF00BF1837BD4680BD80B582B000AF5F
:1007B4000346FB7197F907301846FFF75DFF00BF4A
:1007C4000837BD4680BD000080B584B000AF7860B6
:1007D4000023FB737B6893F82130022B05D07B68E0
:1007E40004229A630123FB73ECE07B681B687A683C
:1007F4001268126822F00E021A607B681B687A681D
:100804001268126822F001021A607B681B681A469B
:100814006F4B9A4263D96F4A7B681B6819466E4BCB
:10082400994259D07B681B6819466C4B994251D048
:100834007B681B6819466A4B994248D07B681B68E1
:100844001946684B99423FD07B681B681946664B32
:10085400994236D07B681B681946644B99422DD067
:100864007B681B6819465A4B994224D07B681B68E5
:1008740019465F4B99421CD07B681B6819465D4B37
:10088400994214D07B681B6819465B4B99420BD084
:100894007B681B681946594B994202D14FF4805327
:1008A4001BE04FF4803318E04FF4807315E01023FD
:1008B40013E0012311E04FF080730EE04FF4801336
:1008C4000BE04FF4803308E04FF4805305E04FF41D
:1008D400807302E0102300E00123536062E0484A81
:1008E4007B681B6819463C4B994259D07B681B684E
:1008F40019463A4B994251D07B681B681946384BCC
:10090400994248D07B681B681946364B99423FD0C0
:100914007B681B681946344B994236D07B681B6848
:100924001946324B99422DD07B681B681946284BD7
:10093400994224D07B681B6819462D4B99421CD0E0
:100944007B681B6819462B4B994214D07B681B6843
:100954001946294B99420BD07B681B681946274BD3
:10096400994202D14FF480531BE04FF4803318E0D6
:100974004FF4807315E0102313E0012311E04FF0CE
:1009840080730EE04FF480130BE04FF4803308E0E3
:100994004FF4805305E04FF4807302E0102300E02D
:1009A400012353607B68012283F821207B680022A5
:1009B40083F820207B685B6B002B03D07B685B6B28
:1009C40078689847FB7B18461037BD4680BD00BF4A
:1009D4008000024000040240080002401C00024063
:1009E4003000024044000240580002406C000240C3
:1009F400080402401C040240300402404404024043
:100A04000000024080B48BB000AF786039600023EE
:100A1400FB610023BB6100237B6100233B62002355
:100A24003B6100237B6227E101227B6A02FA03F324
:100A3400FB613B681A68FB691340BB61BA69FB69D7
:100A44009A4240F016813B685B68122B34D0122B1B
:100A54000DD8022B2BD0022B04D8002B31D0012B24
:100A64001CD048E0032B43D0112B1BD043E0874A12
:100A7400934226D0854A934206D8854A934220D091
:100A8400844A93421DD036E0834A934219D0834A64
:100A9400934216D0824A934213D02CE03B68DB6821
:100AA4003B6228E03B68DB6804333B6223E03B683D
:100AB400DB6808333B621EE03B68DB680C333B6257
:100AC40019E03B689B68002B02D104233B6212E0CF
:100AD4003B689B68012B05D108233B627B68FA695C
:100AE4001A6108E008233B627B68FA695A6102E0F4
:100AF40000233B6200BFBB69FF2B01D87B6801E088
:100B04007B680433FB60BB69FF2B02D87B6A9B00C4
:100B140002E07B6A083B9B003B61FB681A680F217B
:100B24003B6901FA03F3DB431A40396A3B6901FA72
:100B340003F31A43FB681A603B685B6803F0805355
:100B4400002B00F09680574A564B9B6943F00103F3
:100B54009361544B9B6903F00103BB60BB68524A29
:100B64007B6A9B08023352F823307B617B6A03F073
:100B740003039B000F2202FA03F3DB437A69134059
:100B84007B617B68494A934213D07B68484A93420D
:100B94000DD07B68474A934207D07B68464A93420C
:100BA40001D1032306E0042304E0022302E001232D
:100BB40000E000237A6A02F00302920093407A690B
:100BC40013437B6138497B6A9B0802337A6941F895
:100BD40023203B685B6803F48033002B06D037493D
:100BE400364B1A68BB6913430B6006E03349334B39
:100BF4001A68BB69DB4313400B603B685B6803F412
:100C04000033002B06D02D492C4B5A68BB69134383
:100C14004B6006E02949294B5A68BB69DB43134002
:100C24004B603B685B6803F48013002B06D02349B8
:100C3400224B9A68BB6913438B6006E01F491F4B24
:100C44009A68BB69DB4313408B603B685B6803F4C1
:100C54000013002B06D01949184BDA68BB691343FB
:100C6400CB6006E01549154BDA68BB69DB431340DA
:100C7400CB607B6A01337B627B6A0F2B7FF6D4AE39
:100C840000BF2C37BD4680BC704700BF0000211058
:100C9400000011100000121000003110000032108A
:100CA4000000221000100240000001400008014032
:100CB400000C0140001001400014014000040140F8
:100CC40080B483B000AF78600B467B8013467B70A2
:100CD4007B78002B03D07A887B681A6103E07B88D9
:100CE4001A047B681A6100BF0C37BD4680BC70478C
:100CF40080B586B000AF786000233B617B681B68D9
:100D040003F00103002B00F08780924B5B6803F033
:100D14000C03042B0CD08F4B5B6803F00C03082BE3
:100D240012D18C4B5B6803F48033B3F5803F0BD155
:100D3400884B1B6803F40033002B6CD07B689B68E2
:100D4400002B68D10123C5E27B689B68B3F5803F23
:100D540006D1804A7F4B1B6843F4803313602EE036
:100D64007B689B68002B0CD17A4A7A4B1B6823F46E
:100D740080331360774A774B1B6823F48023136016
:100D84001DE07B689B68B3F5A02F0CD1714A714BB1
:100D94001B6843F4802313606E4A6E4B1B6843F454
:100DA400803313600BE06B4A6A4B1B6823F4803377
:100DB4001360684A674B1B6823F4802313607B68C5
:100DC4009B68002B13D0FFF7F9FB386108E0FFF7AD
:100DD400F5FB02463B69D31A642B01D9032379E25C
:100DE4005C4B1B6803F40033002BF0D014E0FFF7D6
:100DF400E5FB386108E0FFF7E1FB02463B69D31AE3
:100E0400642B01D9032365E2524B1B6803F40033BE
:100E1400002BF0D100E000BF7B681B6803F00203E5
:100E2400002B63D04B4B5B6803F00C03002B0BD0FF
:100E3400484B5B6803F00C03082B1CD1454B5B68E3
:100E440003F48033002B16D1424B1B6803F00203DA
:100E5400002B05D07B685B69012B01D0012339E2AB
:100E64003C493C4B1B6823F0F8027B689B69DB0020
:100E740013430B603AE07B685B69002B20D0364B50
:100E840001221A60FFF79AFB386108E0FFF796FB2E
:100E940002463B69D31A022B01D903231AE22D4BD4
:100EA4001B6803F00203002BF0D02A49294B1B686E
:100EB40023F0F8027B689B69DB0013430B6015E0A9
:100EC400254B00221A60FFF779FB386108E0FFF731
:100ED40075FB02463B69D31A022B01D90323F9E1BE
:100EE4001C4B1B6803F00203002BF0D17B681B68CA
:100EF40003F00803002B39D07B68DB69002B19D081
:100F0400164B01221A60FFF759FB386108E0FFF71E
:100F140055FB02463B69D31A022B01D90323D9E1BD
:100F24000C4B5B6A03F00203002BF0D0012000F0AD
:100F340025FC1BE0094B00221A60FFF73FFB3861D8
:100F44000EE0FFF73BFB02463B69D31A022B07D99D
:100F54000323BFE1001002400000424280044242E9
:100F64009B4B5B6A03F00203002BEAD17B681B688E
:100F740003F00403002B00F0A6800023FB75944BC0
:100F8400DB6903F08053002B0DD1914A904BDB6950
:100F940043F08053D3618E4BDB6903F08053FB60D5
:100FA400FB680123FB758B4B1B6803F48073002BD8
:100FB40018D1884A874B1B6843F480731360FFF78A
:100FC400FDFA386108E0FFF7F9FA02463B69D31AE3
:100FD400642B01D903237DE17E4B1B6803F48073EA
:100FE400002BF0D07B681B69012B06D1784A784B23
:100FF4001B6A43F0010313622DE07B681B69002B1D
:101004000CD1734A724B1B6A23F001031362704ABA
:101014006F4B1B6A23F0040313621CE07B681B699B
:10102400052B0CD16A4A6A4B1B6A43F00403136212
:10103400674A674B1B6A43F0010313620BE0644A7F
:10104400634B1B6A23F001031362614A604B1B6A02
:1010540023F0040313627B681B69002B15D0FFF790
:10106400ADFA38610AE0FFF7A9FA02463B69D31AE0
:1010740041F28832934201D903232BE1544B1B6A7A
:1010840003F00203002BEED014E0FFF797FA386167
:101094000AE0FFF793FA02463B69D31A41F2883219
:1010A400934201D9032315E1494B1B6A03F0020360
:1010B400002BEED1FB7D012B05D1454A444BDB6966
:1010C40023F08053D3617B68DB6A002B00F08C80B3
:1010D4003F4B5B6803F48033B3F5803F0ED13C4B48
:1010E4005B6803F00C03082B08D1394BDB6A03F46B
:1010F4008033B3F5803F01D10123EBE07B68DB6AE9
:10110400022B4ED1324B1B6803F08053002B09D0C5
:101114002F4BDB6A03F0F0027B685B6B9A4201D0D1
:101124000123D7E02C4B00221A60FFF747FA3861FD
:1011340008E0FFF743FA02463B69D31A642B01D94E
:101144000323C7E0224B1B6803F00063002BF0D19C
:101154001F491F4BDB6A23F0F0027B685B6B134370
:10116400CB621B491A4BDB6A23F470627B681B6BEE
:101174001343CB62184B01221A60FFF71FFA386140
:1011840008E0FFF71BFA02463B69D31A642B01D926
:1011940003239FE00E4B1B6803F00063002BF0D089
:1011A40022E00B4A0A4BDB6A23F48033D3620A4BF6
:1011B40000221A60FFF702FA38610FE0FFF7FEF928
:1011C40002463B69D31A642B08D9032382E000BF8B
:1011D4000010024000700040680042423F4B1B6810
:1011E40003F00063002BE9D17B681B6A002B70D0ED
:1011F4003A4B5B6803F00C03082B68D07B681B6ACE
:10120400022B4DD1364B00221A60FFF7D7F9386113
:1012140008E0FFF7D3F902463B69D31A022B01D940
:10122400032357E02D4B1B6803F00073002BF0D110
:101234007B685B6AB3F5803F0FD12849274BDA6A94
:101244007B685B681343CB622449244BDB6A23F03D
:101254000F027B68DB681343CB6220481F4B5B683B
:1012640023F474127B68596A7B689B6A0B431343AB
:1012740043601B4B01221A60FFF7A0F9386108E0B4
:10128400FFF79CF902463B69D31A022B01D90323C9
:1012940020E0124B1B6803F00073002BF0D018E021
:1012A4000F4B00221A60FFF789F9386108E0FFF755
:1012B40085F902463B69D31A022B01D9032309E0BD
:1012C400064B1B6803F00073002BF0D101E00123EF
:1012D40000E0002318461837BD4680BD00100240C8
:1012E4006000424280B584B000AF7860396000236A
:1012F400FB607E4B1B6803F007023B689A4210D2E6
:101304007A497A4B1B6823F007023B6813430B604E
:10131400764B1B6803F007023B689A4201D0012315
:10132400E0E07B681B6803F00203002B20D07B689D
:101334001B6803F00403002B05D06D4A6C4B5B68FB
:1013440043F4E06353607B681B6803F00803002BDD
:1013540005D0674A664B5B6843F460535360644945
:10136400634B5B6823F0F0027B689B6813434B601C
:101374007B681B6803F00103002B6AD07B685B6801
:10138400012B07D15A4B1B6803F40033002B15D1F2
:101394000123A7E07B685B68022B07D1544B1B68D1
:1013A40003F00073002B09D101239BE0504B1B6811
:1013B40003F00203002B01D1012393E04C494C4B71
:1013C4005B6823F003027B685B6813434B60FFF7A1
:1013D400F5F8F8607B685B68012B12D10AE0FFF72F
:1013E400EDF80246FB68D31A41F28832934201D9E0
:1013F400032377E03E4B5B6803F00C03042BEED130
:1014040027E07B685B68022B1DD10AE0FFF7D6F862
:101414000246FB68D31A41F28832934201D903236E
:1014240060E0334B5B6803F00C03082BEED110E053
:10143400FFF7C4F80246FB68D31A41F2883293429C
:1014440001D903234EE02A4B5B6803F00C03002B05
:10145400EED1264B1B6803F007023B689A4210D971
:101464002249224B1B6823F007023B6813430B609D
:101474001E4B1B6803F007023B689A4201D001230C
:1014840030E07B681B6803F00403002B08D0184984
:10149400174B5B6823F4E0627B68DB6813434B60A3
:1014A4007B681B6803F00803002B09D01049104B1C
:1014B4005B6823F460527B681B69DB0013434B6059
:1014C40000F01CF801460A4B5B681B0903F00F038C
:1014D400084AD35C21FA03F3074A1360002001F0A1
:1014E400DBFE002318461037BD4680BD00200240B5
:1014F40000100240FC3C0008080000202DE9F04FD9
:1015040093B000AF674B07F11C060FCB07C63380BF
:10151400654B07F10C060FCB86E80F000023FB6335
:101524000023BB6300237B6400237B6300233B64B1
:1015340000233B630023FB625C4B5B68FB63FB6B38
:1015440003F00C03042B02D0082B03D0A0E0584B6B
:101554003B64A0E0FB6B9B0C03F00F0307F1480214
:10156400134413F82C3C7B63FB6B03F48033002B94
:1015740000F086804D4BDB6A03F00F0307F148024D
:10158400134413F83C3CBB63484BDB6A03F48033DD
:10159400002B63D0454BDB6A1B0903F00F030133B7
:1015A4003B63424BDB6A1B0A03F00F030233FB620B
:1015B400FB6A18464FF000017B6B1A464FF000039C
:1015C40002FB01FE00FB03F67644A0FB0201731844
:1015D400194602460B465E017E607E6846EAD26684
:1015E4007E6053013B60D7E90023121A63EB0103C9
:1015F4009D0145EA92659401A41A65EB03054FEA3F
:10160400C50B4BEA547B4FEAC40A54465D46241882
:1016140045EB01054FEA452949EAD4594FEA4428E4
:1016240044464D46A046A9463B6B19464FF000027E
:10163400BB6B4FF0000403FB02F501FB04F02844EC
:10164400A1FB0334021914461A4623464046494670
:10165400FEF7FCFD03460C467B6407E07B6B144AF3
:1016640002FB03F2BB6BB2FBF3F37B6497F8293004
:101674001A467B6B9A4208D17B6C5B087B6404E05E
:101684007B6B0C4A02FB03F37B647B6C3B6402E0E0
:10169400074B3B6400BF3B6C18464C37BD46BDE866
:1016A400F08F00BFAC3B0008BC3B000800100240B8
:1016B40000127A0000093D0080B400AF024B1B68A1
:1016C4001846BD4680BC70470800002080B500AFB6
:1016D400FFF7F2FF0146054B5B681B0A03F00703A3
:1016E400034AD35C21FA03F3184680BD001002407C
:1016F4000C3D000880B500AFFFF7DEFF0146054B47
:101704005B68DB0A03F00703034AD35C21FA03F3A3
:10171400184680BD001002400C3D000880B483B020
:1017240000AF786039607B680F221A60114B5B68E8
:1017340003F003027B685A600E4B5B6803F0F0020F
:101744007B689A600B4B5B6803F4E0627B68DA6049
:10175400084B5B68DB0803F4E0627B681A61064BA4
:101764001B6803F007023B681A6000BF0C37BD46D4
:1017740080BC7047001002400020024080B485B055
:1017840000AF78600A4B1B680A4AA2FB03235B0A7A
:101794007A6802FB03F3FB6000BFFB685A1EFA6021
:1017A400002BF9D100BF1437BD4680BC704700BF81
:1017B40008000020D34D621080B582B000AF78607D
:1017C4007B68002B01D101231DE07B6893F83D3039
:1017D400DBB2002B06D17B68002283F83C207868BA
:1017E40000F015F87B68022283F83D207B681A68B4
:1017F4007B6804331946104600F058F97B680122CF
:1018040083F83D20002318460837BD4680BD80B4C8
:1018140083B000AF786000BF0C37BD4680BC704712
:1018240080B483B000AF78607B681B687A68126804
:10183400D26842F00102DA607B681B687A68126839
:10184400126842F001021A60002318460C37BD46A4
:1018540080BC704780B582B000AF78607B681B683D
:101864001B6903F00203022B22D17B681B68DB682F
:1018740003F00203022B1BD17B681B686FF002028A
:101884001A617B6801221A777B681B689B6903F0E5
:101894000303002B03D0786800F0EDF805E07868C6
:1018A40000F0E0F8786800F0EFF87B6800221A771F
:1018B4007B681B681B6903F00403042B22D17B683B
:1018C4001B68DB6803F00403042B1BD17B681B68D3
:1018D4006FF004021A617B6802221A777B681B6826
:1018E4009B6903F44073002B03D0786800F0C3F8BD
:1018F40005E0786800F0B6F8786800F0C5F87B6811
:1019040000221A777B681B681B6903F00803082B05
:1019140022D17B681B68DB6803F00803082B1BD10A
:101924007B681B686FF008021A617B6804221A77CF
:101934007B681B68DB6903F00303002B03D0786822
:1019440000F099F805E0786800F08CF8786800F009
:101954009BF87B6800221A777B681B681B6903F07D
:101964001003102B22D17B681B68DB6803F0100383
:10197400102B1BD17B681B686FF010021A617B6807
:1019840008221A777B681B68DB6903F44073002B19
:1019940003D0786800F06FF805E0786800F062F82A
:1019A400786800F071F87B6800221A777B681B68FE
:1019B4001B6903F00103012B0ED17B681B68DB68F4
:1019C40003F00103012B07D17B681B686FF0010250
:1019D4001A61786801F086FB7B681B681B6903F059
:1019E4008003802B0ED17B681B68DB6803F08003C7
:1019F400802B07D17B681B686FF080021A617868BE
:101A040000F0CDF87B681B681B6903F04003402B92
:101A14000ED17B681B68DB6803F04003402B07D1C1
:101A24007B681B686FF040021A61786800F035F833
:101A34007B681B681B6903F02003202B0ED17B6895
:101A44001B68DB6803F02003202B07D17B681B682D
:101A54006FF020021A61786800F098F800BF083728
:101A6400BD4680BD80B483B000AF786000BF0C3742
:101A7400BD4680BC704780B483B000AF786000BFBF
:101A84000C37BD4680BC704780B483B000AF78602B
:101A940000BF0C37BD4680BC704780B483B000AF34
:101AA400786000BF0C37BD4680BC704780B485B0F9
:101AB40000AF786039600023FB607B681B68FB60C3
:101AC4007B682E4A93420FD07B68B3F1804F0BD0D2
:101AD4007B682B4A934207D07B682A4A934203D0FF
:101AE4007B68294A934208D1FB6823F07003FB60AA
:101AF4003B685B68FA681343FB607B681F4A934248
:101B04000FD07B68B3F1804F0BD07B681C4A9342A3
:101B140007D07B681B4A934203D07B681A4A9342DE
:101B240008D1FB6823F44073FB603B68DB68FA6808
:101B34001343FB60FB6823F08003FB603B685B6935
:101B4400FA681343FB607B68FA681A603B689A681A
:101B54007B68DA623B681A687B689A627B68074A2A
:101B6400934203D13B681A697B681A637B6801223C
:101B74005A6100BF1437BD4680BC7047002C014039
:101B84000004004000080040000C004080B483B012
:101B940000AF786000BF0C37BD4680BC704780B48E
:101BA40083B000AF786000BF0C37BD4680BC70477F
:101BB40080B582B000AF78607B68002B01D101232F
:101BC4003FE07B6893F83930DBB2002B06D17B68A9
:101BD400002283F83820786801F0CAFA7B6824224E
:101BE40083F839207B681B687A681268D26822F40B
:101BF4000052DA60786800F08BFB7B681B687A68B7
:101C04001268126922F490421A617B681B687A6830
:101C14001268526922F02A025A617B681B687A684A
:101C24001268D26842F40052DA607B680022DA63F8
:101C34007B68202283F839207B68202283F83A20AD
:101C4400002318460837BD4680BD80B588B002AF72
:101C5400F860B9603B601346FB8000237B61FB683E
:101C640093F83930DBB2202B40F08280BB68002B24
:101C740002D0FB88002B01D101237AE0FB6893F8A2
:101C84003830012B01D1022373E0FB68012283F871
:101C94003820FB680022DA63FB68212283F83920AC
:101CA400FEF78CFC7861FB68FA889A84FB68FA88F2
:101CB400DA8441E0FB68DB8C9BB2013B9AB2FB689F
:101CC400DA84FB689B68B3F5805F21D13B6800939D
:101CD4007B6900228021F86800F0B2F90346002BEA
:101CE40001D0032345E0BB683B61FB681B683A698C
:101CF4001288C2F308025A60FB681B69002B03D1E7
:101D0400BB680233BB6017E0BB680133BB6013E000
:101D14003B6800937B6900228021F86800F090F909
:101D24000346002B01D0032323E0FB681A68BB6839
:101D3400591CB9601B785360FB68DB8C9BB2002B89
:101D4400B8D13B6800937B6900224021F86800F019
:101D540077F90346002B01D003230AE0FB68202215
:101D640083F83920FB68002283F83820002300E040
:101D7400022318461837BD4680BD80B485B000AF35
:101D8400F860B9601346FB80FB6893F83A30DBB225
:101D9400202B40D1BB68002B02D0FB88002B01D143
:101DA400012339E0FB6893F83830012B01D1022379
:101DB40032E0FB68012283F83820FB68BA689A6233
:101DC400FB68FA889A85FB68FA88DA85FB68002242
:101DD400DA63FB68222283F83A20FB68002283F846
:101DE4003820FB681B68FA681268D26842F4807273
:101DF400DA60FB681B68FA681268526942F00102F3
:101E04005A61FB681B68FA681268D26842F02002C3
:101E1400DA60002300E0022318461437BD4680BC74
:101E24007047000080B588B000AF78607B681B689D
:101E34001B68FB617B681B68DB68BB617B681B6894
:101E44005B697B6100233B610023FB60FB6903F05A
:101E54000F033B613B69002B0DD1FB6903F02003A9
:101E6400002B08D0BB6903F02003002B03D0786853
:101E740000F0CDF9CCE03B69002B00F0AB807B692E
:101E840003F00103002B05D1BB6903F49073002B0D
:101E940000F0A080FB6903F00103002B0AD0BB69AA
:101EA40003F48073002B05D07B68DB6B43F00102E5
:101EB4007B68DA63FB6903F00403002B0AD07B69B7
:101EC40003F00103002B05D07B68DB6B43F00202B7
:101ED4007B68DA63FB6903F00203002B0AD07B6999
:101EE40003F00103002B05D07B68DB6B43F0040295
:101EF4007B68DA63FB6903F00803002B0AD07B6973
:101F040003F00103002B05D07B68DB6B43F0080270
:101F14007B68DA637B68DB6B002B78D0FB6903F0AA
:101F24002003002B07D0BB6903F02003002B02D051
:101F3400786800F06CF97B681B685B6903F0400308
:101F4400002B14BF01230023DBB2FB607B68DB6B37
:101F540003F00803002B02D1FB68002B31D0786812
:101F640000F0B8F87B681B685B6903F04003002B42
:101F740023D07B681B687A681268526922F0400299
:101F84005A617B685B6B002B13D07B685B6B224AC6
:101F94005A637B685B6B1846FEF716FC0346002BFE
:101FA40016D07B685B6B5B6B7A68526B1046984704
:101FB4000EE0786800F03BF80AE0786800F037F843
:101FC40006E0786800F033F87B680022DA631EE0EC
:101FD40000BF1CE0FB6903F08003002B08D0BB6941
:101FE40003F08003002B03D0786800F0A4F80FE01E
:101FF400FB6903F04003002B0AD0BB6903F04003E4
:10200400002B05D0786800F0EAF800BF00E000BFBC
:102014002037BD4680BD00BF1321000880B483B0C3
:1020240000AF786000BF0C37BD4680BC704780B4F9
:1020340083B000AF786000BF0C37BD4680BC7047EA
:1020440080B584B000AFF860B9603B601346FB71A3
:102054002CE0BB69B3F1FF3F28D0BB69002B07D04C
:10206400FEF7ACFA02463B68D21ABB699A421DD904
:10207400FB681B68FA681268D26822F4D072DA60CE
:10208400FB681B68FA681268526922F001025A61FF
:10209400FB68202283F83920FB68202283F83A2049
:1020A400FB68002283F8382003230FE0FB681B68D9
:1020B4001A68BB681A40BB689A420CBF012300230C
:1020C400DBB21A46FB799A42C3D000231846103774
:1020D400BD4680BD80B483B000AF78607B681B6868
:1020E4007A681268D26822F49072DA607B681B689E
:1020F4007A681268526922F001025A617B682022D0
:1021040083F83A2000BF0C37BD4680BC704780B5C9
:1021140084B000AF78607B685B6AFB60FB68002278
:10212400DA85FB680022DA84F868FFF780FF00BFD5
:102134001037BD4680BD80B485B000AF78607B6841
:1021440093F83930DBB2212B43D17B689B68B3F51C
:10215400805F19D17B681B6AFB607B681B68FA6827
:102164001288C2F308025A607B681B69002B05D1F0
:102174007B681B6A9A1C7B681A620EE07B681B6A88
:102184005A1C7B681A6208E07B681A687B681B6AC1
:10219400581C796808621B7853607B68DB8C9BB29F
:1021A400013B9BB27A681946D184002B0FD17B681E
:1021B4001B687A681268D26822F08002DA607B6851
:1021C4001B687A681268D26842F04002DA60002321
:1021D40000E0022318461437BD4680BC704780B522
:1021E40082B000AF78607B681B687A681268D26836
:1021F40022F04002DA607B68202283F83920786874
:10220400FFF70CFF002318460837BD4680BD80B594
:1022140084B000AF78607B6893F83A30DBB2222B4D
:1022240071D17B689B68B3F5805F23D17B689B6A1F
:10223400FB607B681B69002B0ED17B681B685B68A5
:102244009BB2C3F308039AB2FB681A807B689B6A4B
:102254009A1C7B689A6229E07B681B685B689BB266
:10226400DBB29AB2FB681A807B689B6A5A1C7B6853
:102274009A621BE07B681B69002B0AD17B689B6A0E
:10228400591C7A6891627A6812685268D2B21A70DC
:102294000CE07B689B6A591C7A6891627A681268C0
:1022A4005268D2B202F07F02D2B21A707B68DB8D20
:1022B4009BB2013B9BB27A681946D185002B20D191
:1022C4007B681B687A681268D26822F02002DA60A0
:1022D4007B681B687A681268D26822F48072DA60BC
:1022E4007B681B687A681268526922F001025A619D
:1022F4007B68202283F83A20786800F0F9FC0023F8
:1023040002E0002300E0022318461037BD4680BDDA
:10231400F0B585B000AF78600023FB607B681B6874
:102324007A681268126922F440517A68D2680A43C2
:102334001A617B689A687B681B691A437B685B69CE
:102344001343FA681343FB607B681A687B681B6855
:10235400DB6823F4B05323F00C03F9680B43D36018
:102364007B681B687A681268526922F440717A6843
:1023740092690A435A617B681B686F4A93426BD126
:102384007B681C68FFF7B6F9024613469B001344AA
:102394009A001A447B685B689B00B2FBF3F3674ABC
:1023A400A2FB03235B091D01FFF7A4F902461346B0
:1023B4009B0013449A001A447B685B689B00B2FB41
:1023C400F3F6FFF797F9024613469B0013449A006D
:1023D4001A447B685B689B00B2FBF3F3574AA2FB89
:1023E40003235B09642202FB03F3F31A1B01323358
:1023F400524AA2FB03235B0903F0F0031D44FFF7D9
:1024040079F9024613469B0013449A001A447B68E8
:102414005B689B00B2FBF3F6FFF76CF902461346C8
:102424009B0013449A001A447B685B689B00B2FBD0
:10243400F3F3424AA2FB03235B09642202FB03F386
:10244400F31A1B0132333D4AA2FB03235B0903F059
:102454000F032B44A3606AE07B681C68FFF736F91E
:10246400024613469B0013449A001A447B685B6837
:102474009B00B2FBF3F3314AA2FB03235B091D016A
:10248400FFF724F9024613469B0013449A001A44AA
:102494007B685B689B00B2FBF3F6FFF717F9024613
:1024A40013469B0013449A001A447B685B689B00A4
:1024B400B2FBF3F3214AA2FB03235B09642202FB70
:1024C40003F3F31A1B0132331C4AA2FB03235B09F7
:1024D40003F0F0031D44FFF7F9F8024613469B008E
:1024E40013449A001A447B685B689B00B2FBF3F6C2
:1024F400FFF7ECF8024613469B0013449A001A4473
:102504007B685B689B00B2FBF3F30C4AA2FB0323DA
:102514005B09642202FB03F3F31A1B013233074AFB
:10252400A2FB03235B0903F00F032B44A36000BF4A
:102534001437BD46F0BD00BF003801401F85EB5184
:1025440080B584B000AFF8607B600B46FB72134625
:10255400BB72F868BA7AF97A7B6800F0A3F9FB6871
:1025640018461037BD4680BD80B582B000AF786094
:10257400174B1B68184600F0EDFA0346002B14BFF6
:1025840001230023DBB2002B05D0114B1B68184636
:1025940000F046FBECE70E4B1B687968184600F028
:1025A400E4FA0B4B1B68FF21184600F0F4FA084BC1
:1025B4001B68FF21184600F0EEFA054B1B68FF214B
:1025C400184600F0E8FA00BF0837BD4680BD00BFDA
:1025D4008C00002080B584B000AF78600023FB73CA
:1025E4000023BB60154B1B687968184600F0A5FAF8
:1025F400124B1B6807F108010422184600F0DDFAAB
:102604000346042B14BF01230023DBB2002B01D0AB
:102614000023FB733B7A012B0AD17B7AFF2B07D172
:10262400BB7AFF2B04D1FB7AFF2B01D10123FB736F
:10263400FB7B18461037BD4680BD00BF8C000020D0
:1026440080B584B000AF7860134A7B6813600023C0
:10265400FB730023BB731148FFF786FF1048FFF795
:1026640083FF6420FFF7B6FF0346FB730D48FFF7B3
:102674007BFF6420FFF7AEFF0346BB73FB7B002B9D
:1026840004D0BB7B002B01D0012300E000231846BB
:102694001037BD4680BD00BF8C000020D03B000831
:1026A400D43B0008DC3B000890B585B000AF7860EF
:1026B4002D4B1B68184600F04DFA0346002BCCBF87
:1026C40001230023DBB2002B49D00A20FDF780FF51
:1026D400254B1B68184600F0A3FA03467B737B7BEB
:1026E400652BE5D1204B1B68184600F033FA0346EE
:1026F400052BCCBF01230023DBB2002BD8D01B4A0F
:102704007B7B13700123FB81FB89062B0DDCFC8989
:10271400154B1B68184600F083FA03461A46134B00
:102724001A55FB890133FB81EEE7FB890F4A00212F
:10273400D1540E4B1B79FF2BBAD10C4B5B79FF2B79
:10274400B6D10A4B9B79FF2BB2D1084B5978074B72
:102754009A78064BDB78786800F0F9F8A8E700BFB0
:102764001437BD4690BD00BF8C00002090000020AF
:1027740080B485B000AFF8607B600B46FB721346F3
:10278400BB72FB68FA7A1A70FB68BA7A5A70FB68F3
:102794007A685A60FB6818461437BD4680BC704797
:1027A40080B483B000AF78607B681B7818460C3720
:1027B400BD4680BC704780B483B000AF78607B684E
:1027C4005B7818460C37BD4680BC704780B483B034
:1027D40000AF78607B685B6818460C37BD4680BCE8
:1027E400704780B483B000AF786000BF0C37BD463B
:1027F40080BC704780B584B000AFF8607B600B4646
:10280400FB721346BB72F868BA7AF97A7B6800F0F7
:1028140049F8FB6818461037BD4680BD90B589B0AD
:1028240000AF7860396007F10803184600F0CEFE67
:102834007B681846FFF7CAFF024607F108031146F2
:10284400184600F007FF07F108031449184600F082
:1028540001FF07F108033968184600F0FBFE07F191
:1028640008030F49184600F0F5FE07F1080318465F
:1028740000F0F4FE03461846FFF776FE6420FFF7E7
:10288400A9FE03461C4607F10803184600F0A5FEFE
:10289400234618462437BD4690BD00BFF83B0008C8
:1028A400003C000880B584B000AFF8607B600B4644
:1028B400FB721346BB72F868BA7AF97A7B68FFF741
:1028C40057FFFB6800229A60FB6800221A61FB68CC
:1028D40000225A61FB680022DA60FB681846103750
:1028E400BD4680BD80B485B000AFF860B9607A6041
:1028F400FB68BA681A61FB687A685A6100BF1437CA
:10290400BD4680BC704780B582B000AF78607B68FC
:102914009B68002B05D07B689B687A68D268104658
:10292400984700BF0837BD4680BD80B582B000AF70
:1029340078607B681B69002B05D07B681B697A680B
:1029440052691046984700BF0837BD4680BD80B520
:1029540086B000AFF8607B600B46FB721346BB7217
:1029640000233B610023FB82FB68002B3CD0002347
:10297400FB82FB8A9B00FA6813441B683B613B693A
:10298400002B14BF01230023DBB2002B2FD03B69A3
:102994001846FFF705FF03461A46FB7A93420AD10D
:1029A4003B691846FFF707FF03461A46BB7A934272
:1029B40001D1012300E00023002B11D03B6918460C
:1029C400FFF70FFF7B68012B03D13869FFF79BFFEB
:1029D4000CE07B68002B09D13869FFF7A6FF05E0FE
:1029E400FB8A0133FB82C4E700BF00E000BF183755
:1029F400BD4680BD80B584B000AFF860B9601346B1
:102A0400FB801F4AFB681A60FB88184600F056FDDD
:102A140003461A46FB68DA60FB684FF47A729A60E0
:102A2400FB68BA685A60FB6800221A82FB680022BD
:102A34005A82FB6800229A75FB6800229A82FB681E
:102A4400FA881A83FB68DB684FF400620021184699
:102A540000F075FFFB68163301221946B868FFF7CA
:102A64008CF90346002B14BF01230023DBB2002B97
:102A740000D0EFE7FB6818461037BD4680BD00BFA5
:102A8400903C000880B483B000AF7860044A7B684F
:102A94001A607B6818460C37BD4680BC704700BF7F
:102AA400903C000880B582B000AF78607868FFF78A
:102AB400E9FF1C21786800F003FD7B68184608379D
:102AC400BD4680BD90B583B000AF78600B46FB7007
:102AD4007B689B8A1A467B681B8B9A4229DA7B683F
:102AE400DC68786800F0DDF803462344FA781A704D
:102AF4007B689B8A01339AB27B689A827B685868A8
:102B04007B68163301221946FFF737F90346002B79
:102B140014BF01230023DBB2002B0BD07B685B685E
:102B2400202283F83A207B685B68002283F83820EF
:102B3400E4E700BF0C37BD4690BD80B483B000AF5E
:102B4400786039607B683A689A6000BF0C37BD468C
:102B540080BC704780B483B000AF78607B689B8A88
:102B640018460C37BD4680BC704780B584B000AFB2
:102B7400786039603868FDF7F1FC0346FB817B68B7
:102B840058687B689B68FA893968FFF75EF800BF6C
:102B94001037BD4680BD80B582B000AF78600B466B
:102BA400FB707B6858687B689B68F91C0122FFF7FF
:102BB4004CF800BF0837BD4680BD80B588B000AF73
:102BC400F860B9601346FB800023FB830023BB61DC
:102BD400FA88BB699A421EDDF86800F03EF8786115
:102BE4007B69B3F1FF3F15D0FB8BBA681344FA68D5
:102BF400D1687A690A4412781A70FB8B0133FB831B
:102C0400FB689B8A013B9AB2FB689A82BB690133D9
:102C1400BB61DDE700BFFB8B18462037BD4680BD96
:102C240080B584B000AF7860786800F016F8F8607A
:102C3400FB68B3F1FF3F0BD07B689B8A013B9AB2E0
:102C44007B689A827B68DA68FB6813441B7800E02F
:102C5400002318461037BD4680BD80B485B000AF50
:102C640078607B685B8AFB817B689B8A002B02D13E
:102C74004FF0FF3310E07B685A8A7B681B8B9A42C3
:102C840003D17B6800225A8205E07B685B8A0133AA
:102C94009AB27B685A82FB8918461437BD4680BCB9
:102CA400704780B485B000AF78607B681B8AFB8175
:102CB4007B689A8A7B681B8B9A4202D14FF0FF3360
:102CC40010E07B681A8A7B681B8B9A4203D17B686D
:102CD40000221A8205E07B681B8A01339AB27B6862
:102CE4001A82FB8918461437BD4680BC7047000021
:102CF40080B582B000AF78607B681B680A4A934253
:102D04000DD10A4B1B68002B09D0084B1A687B684D
:102D14001B685B68DBB219461046FFF7D3FE00BFA1
:102D24000837BD4680BD00BF004400401C010020A0
:102D340080B582B000AF7860074B1B68074918461E
:102D4400FFF76CFD012201210548FDF7B9FF00BF23
:102D54000837BD4680BD00BF200100209C3C000810
:102D64000008014080B582B000AF7860074B1B6853
:102D740007491846FFF752FD002201210548FDF7D7
:102D84009FFF00BF0837BD4680BD00BF2001002063
:102D9400B03C00080008014098B500AFFDF7E6FB21
:102DA40000F0A2F800F054F900F0F6F800F022F96F
:102DB4001C2000F072FB03461C4640223949204681
:102DC400FFF718FE384B1C60374B1B681846FFF79B
:102DD40037FC182000F061FB03461C46334B0822E5
:102DE40000212046FFF706FD314B1C60182000F03F
:102DF40054FB03461C462F4B052200212046FFF7B7
:102E0400F9FC2D4B1C60182000F047FB03461C46C0
:102E14002A4B012200212046FFF7ECFC284B1C60C2
:102E2400182000F03AFB03461C46264B03220021DF
:102E34002046FFF7DFFC244B1C60182000F02DFB1C
:102E440003461C46214B062200212046FFF778FB4F
:102E54001F4B1C60182000F020FB03461C461D4B32
:102E6400072200212046FFF76BFB1B4B1C60184B0D
:102E74001B68174A19491846FFF734FD164B1B689F
:102E8400154A17491846FFF72DFD114B1B68154AC3
:102E94001360114B1B68134A53601248FFF704FC7C
:102EA400FBE700BFDC0000201C010020C83C000838
:102EB40020010020D03C000824010020DC3C000854
:102EC40028010020E43C00082C010020EC3C000810
:102ED40030010020F43C000834010020352D0008A6
:102EE400692D00083801002080B594B000AF07F1C7
:102EF400180338220021184600F021FD3B1D002252
:102F04001A605A609A60DA601A610123BB614FF457
:102F140080333B6200237B620123FB620023FB615D
:102F24000223BB634FF48033FB634FF4E0133B6431
:102F340000237B6407F118031846FDF7D9FE034606
:102F4400002B14BF01230023DBB2002B01D000F0BF
:102F5400DBF80F237B600223BB600023FB604FF48C
:102F640080633B6100237B613B1D02211846FEF711
:102F7400B9F90346002B14BF01230023DBB2002B55
:102F840001D000F0C1F8034B01221A6000BF503792
:102F9400BD4680BD7000424280B500AF134B144A59
:102FA4001A60124B4FF416525A60104B00229A606A
:102FB4000E4B0022DA600D4B00221A610B4B0C22DF
:102FC4005A610A4B00229A61084B0022DA610748D1
:102FD400FEF7EEFD0346002B14BF01230023DBB2F2
:102FE400002B01D000F090F800BF80BD9C000020B1
:102FF4000038014080B500AF134B144A1A60124BDD
:103004004FF416525A60104B00229A600E4B002265
:10301400DA600D4B00221A610B4B0C225A610A4BE9
:1030240000229A61084B0022DA610748FEF7C0FDCE
:103034000346002B14BF01230023DBB2002B01D075
:1030440000F062F800BF80BDDC00002000440040B6
:1030540080B588B000AF07F1100300221A605A60EF
:103064009A60DA601D4A1D4B9B6943F0200393610B
:103074001A4B9B6903F02003FB60FB68174A174B4C
:103084009B6943F004039361144B9B6903F00403AD
:10309400BB60BB68114A114B9B6943F00803936101
:1030A4000E4B9B6903F008037B607B6800220121BF
:1030B4000B48FDF705FE01233B6101237B610023DF
:1030C400BB610223FB6107F1100319460448FDF7B5
:1030D40099FC00BF2037BD4680BD00BF00100240F0
:1030E4000008014080B582B000AF78607B681B683F
:1030F400044A934201D1FDF74FFA00BF0837BD4699
:1031040080BD00BF0014004080B400AF00BFBD46C6
:1031140080BC704780B485B000AF134A124B9B69E2
:1031240043F001039361104B9B6903F00103BB60FF
:10313400BB680D4A0C4BDB6943F08053D3610A4BE7
:10314400DB6903F080537B607B68084B5B68FB6042
:10315400FB6823F0E063FB60044AFB68536000BF34
:103164001437BD4680BC7047001002400000014087
:1031740080B58AB000AF786007F1180300221A60A6
:103184005A609A60DA607B681B683F4A93423AD17E
:103194003E4A3E4B9B6943F4804393613B4B9B699E
:1031A40003F480437B617B69384A384B9B6943F065
:1031B40004039361354B9B6903F004033B613B6952
:1031C4004FF40073BB610223FB6103237B6207F1AD
:1031D400180319462E48FDF715FC4FF48063BB61B4
:1031E4000023FB6100233B6207F1180319462848BA
:1031F400FDF708FC002200212520FDF7BAFA25205E
:10320400FDF7D3FA3CE07B681B68224A934237D12E
:103214001E4A1E4BDB6943F40033D3611B4BDB694D
:1032240003F40033FB60FB68184A184B9B6943F0B6
:1032340004039361154B9B6903F00403BB60BB68F3
:103244000423BB610223FB6103237B6207F11803A0
:1032540019460F48FDF7D6FB0823BB610023FB6129
:1032640000233B6207F1180319460948FDF7CAFB1E
:10327400002200212620FDF77CFA2620FDF795FA8E
:1032840000BF2837BD4680BD003801400010024011
:10329400000801400044004080B58CB000AF786065
:1032A4000023FB620023BB62002279683720FDF70C
:1032B40060FA3720FDF779FA1F4A1F4BDB6943F0A8
:1032C4002003D3611C4BDB6903F02003FB60FB6824
:1032D40007F1100207F1140311461846FEF71EFA0F
:1032E400FEF7F4F903465B00FB62FB6A134AA2FB98
:1032F40003239B0C013BBB62114B124A1A60104B17
:1033040040F2E732DA600E4ABB6A53600C4B00228B
:103314001A610B4B00229A600948FEF74DFA0346E6
:10332400002B04D10648FEF77BFA034600E0012394
:1033340018463037BD4680BD0010024083DE1B4373
:10334400F40100200014004080B400AF00BFBD466B
:1033540080BC704780B400AFFEE780B400AFFEE7E6
:1033640080B400AFFEE780B400AFFEE780B400AFE6
:1033740000BFBD4680BC704780B400AF00BFBD46EF
:1033840080BC704780B400AF00BFBD4680BC7047AE
:1033940080B400AF00BFBD4680BC704780B500AFAD
:1033A4000248FEF73FFD00BF80BD00BF9C00002027
:1033B40080B500AF0248FEF735FD00BF80BD00BFF9
:1033C400DC00002080B500AF0248FEF743FA00BFDE
:1033D40080BD00BFF401002080B400AF1A4A1A4B2C
:1033E4001B6843F0010313601749174B5A68174BC6
:1033F40013404B60144A144B1B6823F0847323F46A
:1034040080331360104A104B1B6823F4802313602D
:103414000D4A0D4B5B6823F4FE0353600A4A0A4BC2
:103424001B6823F0A0531360074B4FF47F029A608C
:10343400054B0022DA62064B4FF000629A6000BF2F
:10344400BD4680BC704700BF001002400000FFF082
:1034540000ED00E0002103E00A4B5B5843500431C7
:1034640009480A4B42189A42F6D3094A02E000235B
:1034740042F8043B074B9A42F9D3FFF7ADFFFFF73D
:103484008BFC7047C43D0008000000207000002041
:103494007000002038020020FEE710B5002814BF99
:1034A40004460124204600F02FFA30B900F00AF84F
:1034B40008B900F021FA8047F4E710BDFFF7EDBF2B
:1034C40000F008B8024B1868BFF35B8F704700BF69
:1034D4004001002000F020BA0AB100F025BA70477C
:1034E40008B50B68002B02DA094800F0B9F89342DA
:1034F40008D95200934205D2002AB6BF6FF00043A8
:103504000A600B600868BDE808400130FFF7C5BFDA
:10351400293D0008034653F8080B984201D0FFF7F1
:10352400D9BF704701F1004140680139091A91423D
:1035340008B502D2184600F093F808BD012A10B568
:1035440002D10A78027010BDFFF7C6FF10BD2DE945
:10355400F3471646DDF8288042689A46A8EB06032E
:10356400571A13440268019300F108039A420D4666
:1035740014BF82680F2201A90446FFF7B1FFBF1BE5
:1035840081461DB12A462168FFF7D8FFBAF1000F22
:1035940008D0B8F1000F05D04246514609EB0500AA
:1035A400FFF7CCFF47B121682E4405EB08003A46EB
:1035B40031444844FFF7C2FF2046FFF7ABFF019BAD
:1035C400C4F80090A36002B0BDE8F08700F10802DF
:1035D4000260002242600272704710B50446FFF791
:1035E40099FF204610BD73B50446264656F8083B9D
:1035F4004068B3420CBF0F26A6688518B5420AD8A6
:1036040012B11844FFF79AFF002220462368656030
:103614005A5502B070BD00920B4600220146204666
:10362400FFF795FFF0E7000070B5044608460D4625
:10363400FCF794FF06460246054B20460021FFF79F
:1036440071FF324629462046FFF7CDFF70BD00BF0B
:10365400143D000808B5FFF7E7FF08BD0068704790
:1036640008B500F049F90000244B1A68D0075CBF84
:1036740001221A60224B1A68D1075CBF01221A602A
:10368400204B1A68D2075CBF01221A601E4B1A68CD
:10369400D0075CBF01221A601C4B1A68D1075CBFBB
:1036A40001221A601A4B1A68D2075CBF01221A6001
:1036B400184B1A68D0075CBF01221A60164B1A68AF
:1036C400D1075CBF01221A60144B1A68D2075CBF91
:1036D40001221A60124B1A68D0075CBF01221A60DB
:1036E400104B1A68D1075CBF01221A600E4B1A688E
:1036F400D2075CBF01221A60704700BF700100202E
:103704006C01002068010020640100206001002099
:103714005C010020580100205401002050010020C9
:103724004C0100204801002044010020244B1A6869
:10373400D0075CBF01221A60224B1A68D1075CBF14
:1037440001221A60204B1A68D2075CBF01221A605A
:103754001E4B1A68D0075CBF01221A601C4B1A6802
:10376400D1075CBF01221A601A4B1A68D2075CBFEA
:1037740001221A60184B1A68D0075CBF01221A6034
:10378400164B1A68D1075CBF01221A60144B1A68E1
:10379400D2075CBF01221A60124B1A68D0075CBFC3
:1037A40001221A60104B1A68D1075CBF01221A600B
:1037B4000E4B1A68D2075CBF01221A60704700BF23
:1037C400A00100209C010020980100209401002009
:1037D400900100208C010020880100208401002039
:1037E400800100207C010020780100207401002069
:1037F400184B1A68D1075CBF01221A60164B1A686D
:10380400D2075CBF01221A60144B1A68D0075CBF50
:1038140001221A60124B1A68D1075CBF01221A6098
:10382400104B1A68D2075CBF01221A600E4B1A684B
:10383400D0075CBF01221A600C4B1A68D1075CBF29
:1038440001221A600A4B1A68D2075CBF01221A606F
:10385400704700BFC0010020BC010020B801002057
:10386400B4010020B0010020AC010020A801002018
:10387400A4010020184B1A68D1075CBF01221A600A
:10388400164B1A68D2075CBF01221A60144B1A68DF
:10389400D0075CBF01221A60124B1A68D1075CBFC3
:1038A40001221A60104B1A68D2075CBF01221A6009
:1038B4000E4B1A68D0075CBF01221A600C4B1A68C1
:1038C400D1075CBF01221A600A4B1A68D2075CBF99
:1038D40001221A60704700BFE0010020DC010020D3
:1038E400D8010020D4010020D0010020CC01002008
:1038F400C8010020C401002008B5062000F00AF920
:10390400012000F043F90000024B0146186800F062
:103914006BB800BF0C000020024B0146186800F091
:1039240017B800BF0C00002010B5431E0A44914292
:1039340000D110BD11F8014B03F8014FF7E703461E
:103944000244934200D1704703F8011BF9E70000D9
:1039540038B50546002943D051F8043C0C1F002B10
:10396400B8BFE41800F0F2F81E4A1368104633B9E1
:10397400636014602846BDE8384000F0E8B8A3420C
:103984000BD921686218934201BF1A685B68521808
:10399400226063600460EDE713465A680AB1A242EC
:1039A400FAD919685818A0420BD120680144581854
:1039B40082421960DED110685268014419605A606D
:1039C400D8E702D90C232B60D4E7206821188A4257
:1039D40001BF116852680918216062605C60C9E720
:1039E40038BD00BFE401002070B5CD1C25F00305EF
:1039F40008350C2D38BF0C25002D064601DBA942E5
:103A040003D90C233360002070BD00F09FF8234AD3
:103A14001468214691B9224C23681BB9304600F042
:103A240041F820602946304600F03CF8431C26D17A
:103A34000C233046336000F08AF8E4E70B685B1B24
:103A44001AD40B2B0FD90B60CC18CD50304600F094
:103A54007EF804F10B00231D20F00700C31A1BD0CD
:103A64005A42E25070BD8C420BBF63684B681360CE
:103A7400636018BF0C46E9E70C464968CAE7C41CF2
:103A840024F00304A04205D0211A304600F00AF8BD
:103A94000130CDD02560D9E770BD00BFE40100201E
:103AA400E801002038B50023054C0546084623608C
:103AB40000F05EF8431C02D1236803B12B6038BDCB
:103AC400340200201F2938B504460D4604D91623B4
:103AD40003604FF0FF3038BD426C12B152F8213010
:103AE4004BB9204600F030F82A4601462046BDE88E
:103AF400384000F017B8012B0AD0591C03D1162303
:103B04000360012038BD0024284642F82540984728
:103B1400002038BD024B01461868FFF7D3BF00BF31
:103B24000C00002038B50023064C05460846114613
:103B3400236000F015F8431C02D1236803B12B6005
:103B440038BD00BF3402002000F002B8704770474F
:103B54005822024B4FF0FF301A60704734020020A5
:103B64005822024B4FF0FF301A6070473402002095
:103B7400044A05491368002B08BF0B46184410601B
:103B840018467047EC01002038020020FEE700BF11
:103B9400F8B500BFF8BC08BC9E467047F8B500BF36
:083BA400F8BC08BC9E46704706
:103BAC00000004050607080900000000000D0000D5
:103BBC000102030405060708090A0B0C0D0E0F1071
:103BCC000000000000000000626B636D643D31007A
:103BDC00706167652030000000000000676574208C
:103BEC00000000002E747874000000002E747874AD
:103BFC003D220000220000002E62636F00000000D6
:103C0C002E62636F3D0000000000000072656620AC
:103C1C00000000002E70636F000000002E70636FB8
:103C2C003D0000002E7863656E0000002E78636501
:103C3C006E3D00002E7963656E0000002E79636581
:103C4C006E3D00002E666F6E740000002E666F6E67
:103C5C00743D00002E706963630000002E70696370
:103C6C00633D00002E706963000000002E706963D4
:103C7C003D000000000000000D0A000000000000E4
:103C8C0000000000892A0008A92A00080000000092
:103C9C0049736C656D206261736C6174696C6469E5
:103CAC002E00000049736C656D20736F6E6C616E35
:103CBC00646972696C64692E00000000745374614D
:103CCC0074757300744D6573736167650000000053
:103CDC00744D696E75746500745365636F6E640022
:103CEC0062537461727400006253746F7000000050
:103CFC000000000000000000010203040607080990
:103D0C00000000000102030462617369635F737455
:103D1C0072696E673A3A617070656E6400626173C5
:103D2C0069635F737472696E673A3A5F4D5F637271
:103D3C0065617465000000000000000000000000D8
:103D4C000000000000000000000000000000000067
:103D5C000000000000000000000000000000000057
:103D6C000000000000000000000000000000000047
:103D7C000000000000000000000000000000000037
:103D8C000000000000000000000000000000000027
:083D9C0000000000000000001F
:083DA400DCC4FF7F01000000F8
:103DAC00090200086D36000831370008F5370008A5
:043DBC00793800084A
:043DC000E501000811
:103DC400100000000100000000A24A0410000020BE
:103DD40000000000643D0008843D0008443D0008E4
:103DE40000000000000000000000000000000000CF
:103DF40000000000000000000000000000000000BF
:103E040000000000000000000000000000000000AE
:103E1400000000000000000000000000000000009E
:103E2400000000000000000000000000000000008E
:040000050800345962
:00000001FF
